:0400000300000800F1
:100000000C943E000C9450000C9450000C94500042
:100010000C9450000C9450000C9450000C94500020
:100020000C9450000C9450000C9450000C94500010
:100030000C9450000C9450000C9450000C94500000
:100040000C9450000C9450000C9450000C945000F0
:100050000C9450000C9450000C9450000C945000E0
:100060000C9450000C9450000C9450000C945000D0
:100070000C9450000C9450000C94500011241FBE9E
:10008000CFEFCDBFDFE3DEBF28E3A0E0B8E301C0E0
:100090001D92A337B207E1F70E949A010C948A02DD
:1000A0000C940000F8941092190810921C081092F9
:1000B0004001E0E0F4E00995FFCF809102108370E9
:1000C000E1F708950F931F93CF93DF9390916E38CC
:1000D000911107C080EB80935C3881E080936D388C
:1000E0007FC080914438833009F420C180F481308E
:1000F00009F453C0823071F7933108F471C08091D4
:100100007138811172C083E08093433869C08530B3
:10011000B9F108F4DCC08630E9F6953008F460C027
:10012000409145385091463854274527542770E070
:1001300060E0809147389091483898278927982720
:100140008A019B01080F191F211D311D0130F0E4A8
:100150001F072105310520F000E010E420E030E029
:100160008FEF9FEFFA01F0584017510762077307AE
:1001700008F4C9C021E020935C3890935D3809C031
:1001800081E080935C388091723880935D388091F3
:10019000433880935E3883E0A1CF933008F12091FB
:1001A000453830914638322723273227109243387A
:1001B000A9015850413C574328F4A9014F735527D2
:1001C000452B31F082E0809343381092713808C09B
:1001D00020934138309342388093713810924038E0
:1001E000DF91CF911F910F910895C5E4D8E345E5C4
:1001F00058E3DE018FEF9FEF2D91922728E0BC019D
:10020000880F991F77FF04C0F1E28F27F0E19F2745
:100210002150A9F74A175B0779F72091553830919B
:1002200056383227232732272817390711F081E063
:100230006BCF80914038E82FE295E07FF0E0E0500E
:10024000F84C99919193AC17BD07D9F78F5F8093C4
:100250004038843028F2C0914138D09142380E9411
:100260005D008DE994E084BF909300100E945D00D2
:10027000E0E0F8E39E012050384B8181908189278E
:1002800098278927D901AE0FBF1F8D939C93329673
:1002900088E3E034F80789F78DE993E084BF909311
:1002A00000100E945D0080910210982F947082FDD2
:1002B0009093433810924038C05CDF4FC093413870
:1002C000D0934238C13CDF4308F48ACF7ECF0E94EE
:1002D0005D008FEF9FEF8093008890930188CDE9B8
:1002E00082E0C4BF809300100E945D0080910210E4
:1002F000847094E0C4BF90930010811105CF81E019
:100300008093723862CFE0819E27E8E0DC01880F9D
:10031000991FB7FF04C0F1E28F27F0E19F27E1505A
:10032000A9F74F5F5F4F6F4F7F4F1CCF81E08093E6
:10033000703856CFCF93DF9300D0CDB7DEB7809122
:1003400040004091003F5091013F6091023F709109
:10035000033F809340001092003F1092013F1092A3
:10036000023F1092033F209100883091018884FF62
:1003700006C081E04D30504F6740704B09F080E07F
:1003800081702F3F320721F0811102C00E9452007C
:1003900081E02F3F3F4F09F080E080937238109248
:1003A000713880915004886080935004809151048A
:1003B0008860809351048091520488608093520435
:1003C00019821A8289819A81883E9340D8F180915E
:1003D000480420E282FF24E290E081FF92E033E0D3
:1003E0003093260480958170820F890F880F809347
:1003F0001C0881E28093190884E080932104109204
:10040000470189E28093400180EBF82E11E09CE0E7
:10041000E92E04E080911B0886FF36C080FF28C0CB
:1004200081FF1FC080916F38882391F00E94620085
:1004300010926F3810926E3810926C3883E080936F
:100440001A0850C089819A81019689839A83BACF0C
:1004500080916D388111F0CFF0925C3810936D3837
:10046000EBCF10926E3810926F3810926D38E6CF45
:1004700080916F38882331F00E94620010926F38AB
:1004800010926E3882E0DBCF87FF28C081FF15C055
:10049000E0916C38EE2311F08871A1F780916D38EE
:1004A000E81780F781E08E0F80936C38F0E0E45A13
:1004B000F74C808180931D08C1CF80911D08E09189
:1004C0006E38E83140F491E09E0F90936E38F0E082
:1004D000EC5BF74C808310936F38B0CF8C7011F0C9
:1004E000E0921B08809148019091490187FF0FC05D
:1004F0000093250480917038882309F48BCF809174
:10050000008890910188019609F484CF3FCF009331
:080510002604F0CFF894FFCFA0
:100800000C943F040C9467040C9467040C946704E4
:100810000C9467040C9467040C9467040C946704AC
:100820000C9467040C9467040C9467040C9467049C
:100830000C9467040C9467040C9467040C94500C9B
:100840000C9467040C9467040C9467040C9467047C
:100850000C94B70D0C940D0E0C9467040C94670463
:100860000C94130D0C9467040C9467040C94910C75
:100870000C948A0C0C94980C0C946704310E11247F
:100880001FBECFEFCDBFDFE3DEBF18E3A0E0B8E3CC
:10089000ECECF4E302C005900D92A631B107D9F754
:1008A00029E3A6E1B8E301C01D92A638B207E1F73B
:1008B00014E0CFE3D4E004C02197FE010E94151894
:1008C000CE33D107C9F70E94680E0C94241A0C94F9
:1008D00000049FB7F89488E08093840A80918E0A80
:1008E00081FFFCCF80918D0AE091A20AF091A30ACA
:1008F00020918638309187384091883850918938D6
:100900009FBF80FF07C0E730F10520F42F5F3F4F06
:100910004F4F5F4FBF0176956795CF01860F911DB1
:10092000E62FE695E695762F72957F70E71BFF0B15
:1009300067FD3196E80FF91FA0E3B3E00E94391874
:100940006E0F7F1F811D911D08952FB7F894609140
:1009500082387091833880918438909185382FBF88
:100960000895AF92BF92CF92DF92EF92FF920F93D2
:100970001F93CF93DF936C017B018B01040F151F35
:10098000EB015E01AE18BF08C017D10759F069919D
:10099000D601ED91FC910190F081E02DC601099501
:1009A000892B79F7C501DF91CF911F910F91FF90AE
:1009B000EF90DF90CF90BF90AF900895FC015785E6
:1009C0004089252F30E0842F90E0821B930B541731
:1009D00010F0CF96089501970895FC0195858685BE
:1009E000981761F0A685AE0FBF2FB11D51968C915F
:1009F00096859F5F9F73968790E008958FEF9FEF96
:100A00000895FC0195858685981731F08685E80F55
:100A1000F11D818990E008958FEF9FEF0895FC010B
:100A200095852685892F90E0805C9F4F821B9109D8
:100A30008F7399270895DC010FB607FE04C08091DB
:100A400011018823B9F01896ED91FC9119978481D2
:100A500085FF10C01F969C911F9750968C919813FC
:100A600004C085818F7D85830895ECE9F8E3E894DF
:100A70000C94A60C08950F931F93CF93DF93EC0172
:100A80008C8581608C879F85888998130BC0E88549
:100A9000F985848185FF06C08C8581FD0EC080E4C8
:100AA000848313C0062F1F851F5F1F7388898113DE
:100AB00016C0CE010E941B05F9CF85818F77806417
:100AC00090E49483E885F9858583E885F9856283D8
:100AD00081E090E0DF91CF911F910F910895EF8514
:100AE000EC0FFD2FF11DEF5AFF4F00831F878C8500
:100AF000E885F98581FF09C085818F77806690E45C
:100B00009483E885F9858583E3CF85818062FBCF77
:100B1000CF93DF93EC018C85882361F0E885F9851C
:100B2000858185FD03C0848186FD04C0CE010E94BD
:100B30001B05F4CFDF91CF910895DC011896ED915C
:100B4000FC9184818860848308959C012B5C3F4FD5
:100B5000DC011F96EC911F971E968C91E81730F4DC
:100B6000E20FF32FF11D808190E008958FEF9FEF4A
:100B70000895FC01DC01D59697858685981740F489
:100B8000A90FB11D2C919F5F9787822F90E0089548
:100B90008FEF9FEF0895FC0186859785891B990B40
:100BA0000895FC01A585A03258F4A80FB92FB11DF6
:100BB00055966C9385858F5F858781E090E00895D9
:100BC00090E080E008958DE299E30C94D105682FC0
:100BD0008DE299E30C94D105682F8DE299E30C9492
:100BE000D105CF92DF92EF92FF928091163881115A
:100BF00008C086E090E0FF90EF90DF90CF900C94DB
:100C0000EC058130D9F560918239709183398091FA
:100C1000843990918539692F7727882799270E94F1
:100C2000E3058091823990918339A0918439B09104
:100C300085396A2F70E090E080E00E94E3058091A2
:100C4000823990918339A0918439B0918539692F87
:100C500070E090E080E00E94E3056091823970913D
:100C6000833980918439909185397727882799270E
:100C7000FF90EF90DF90CF900C94E3058330C9F4A0
:100C80000E94A5046B017C016F2D77278827992787
:100C90000E94E3056E2D70E090E080E00E94E30585
:100CA0006D2D70E090E080E00E94E305C701B60181
:100CB000DCCFE0907538F0907638863009F47AC051
:100CC000883009F040C0609103118DE299E30E94E1
:100CD000D105609104118DE299E30E94D1056091E4
:100CE00005118DE299E30E94D105609106118DE214
:100CF00099E30E94D105609107118DE299E30E946A
:100D0000D105609108118DE299E30E94D1056091AF
:100D100009118DE299E30E94D10560910A118DE2DB
:100D200099E30E94D10560910B118DE299E30E9435
:100D3000D10560910C118DE299E3FF90EF90DF9067
:100D4000CF900C94D105893089F4E0907538F090FB
:100D500076388091773890917838E81AF90A8F2D93
:100D600090E00E94EC05C701992745CFE0907738C5
:100D7000F09078388A30F1F0E0908B38F0908C3831
:100D80008B30C1F0609149388D30A9F28E3039F442
:100D9000E0911838F0E0EF5BF74C6081CCCF8F30FA
:100DA000A9F4E0911838F0E0EE0FFF1FE75EF74C72
:100DB000E080F1808F2D90E00E94E705C701992720
:100DC000FF90EF90DF90CF900C94E705813139F4DC
:100DD00090E080E00E94EC0590E080E00CCFFF9076
:100DE000EF90DF90CF900895BF92CF92DF92EF9275
:100DF000FF920F931F93CF93DF937C016A01B62E6E
:100E0000EB010C2F0B1910E00C151D0530F4699146
:100E1000C7010E94D105892BA1F7C801DF91CF91AD
:100E20001F910F91FF90EF90DF90CF90BF900895AA
:100E300090E080E00895CF93DF93FC0180916038CB
:100E400090916138309759F410920A0682E090E050
:100E50008093643890936538DF91CF91089526850B
:100E600024FD05C0228133812817390721F0019024
:100E7000F081E02DE7CFE0935C38F0935D38C0E07F
:100E8000D6E0309749F34685948544FD32C0878982
:100E9000882379F1A92FA295AF70B0E0A45BBB4481
:100EA0002C9185858B3138F58C5F678170856AA7B9
:100EB0007BA7658176816EA37FA3618572856A8F2A
:100EC0007B8F2C8F8D839F7099838385282F22950C
:100ED0002F7030E0288B398B8F7080618A83888DEA
:100EE0008360888F81E8888381E042FD06C088871F
:100EF000B3CF2FE3D6CF8FE1D8CF8987ADCFCF92B5
:100F0000DF92EF92FF92CF93DF93009729F1EC01EC
:100F10008DE299E30E94B90580931638823108F07A
:100F2000D1C0E82FF0E0E956F84F0C941518560898
:100F3000560862085608A907B3075608B7075608A7
:100F40005608560856086208BB07C507E30703089A
:100F5000560881E080937F38DF91CF91FF90EF902A
:100F6000DF90CF90089581E080933238F5CF81E013
:100F700080933138F1CF229779F78DE299E30E947F
:100F8000B905877080930738E7CFC230D10541F4A7
:100F90008DE299E30E94B905877080931838DCCF01
:100FA0002397D1F68DE299E30E94B905877080936B
:100FB0002D388DE299E30E94B90580932E3881E0A7
:100FC00080932F38C9CFC230D10511F3249721F671
:100FD0008DE299E30E94B9058770809329388DE2EC
:100FE00099E30E94B905C82F8DE299E30E94B905E3
:100FF00020E0822B9C2B80932A3890932B3881E021
:1010000080932C38A9CF259709F044C08DE299E34D
:101010000E94B9056C018DE299E30E94B9050D2C7F
:10102000000CEE08FF08FC2CEE24DD24CC24092E55
:10103000000CAA0BBB0BDC0199278827C82AD92AE8
:10104000EA2AFB2A8DE299E30E94B905EC018DE2C0
:1010500099E30E94B905AC01CE01DD0FAA0BBB0BD1
:10106000BA2FA92F982F8827052E000C660B770B17
:10107000C42AD52AE62AF72A8C299D29AE29BF2918
:1010800083359041A740B04B09F066CF81E0809353
:10109000303862CF90913B3980913C39981709F4F0
:1010A0005BCF8DE299E30E94B905F4CF90913B3973
:1010B00080913C39981709F44FCF8DE299E30E9453
:1010C000B905F4CF90913B3980913C39981709F4D8
:1010D00043CF8DE299E30E94B905F4CF0F931F939C
:1010E000409112385091133860911438709115382E
:1010F000417F082F10E0000F111F012E000C220B62
:10110000330B402B512B622B732B4093123850938F
:1011100013386093143870931538982F9B7F59F4C7
:101120009DE09093000A8150823010F01092973821
:101130001F910F91089595E0F4CF8F929F92AF92F7
:10114000BF92CF92DF92EF92FF92CF9383319105BE
:1011500009F07BC00E94A504609398387093993879
:1011600080939A3890939B388091123890911338DD
:10117000A0911438B0911538816080931238909303
:101180001338A0931438B093153880919738811193
:101190001FC00E94A5046093933870939438809385
:1011A000953890939638809150069091510680938F
:1011B00091389093923881E080939738CF91FF9047
:1011C000EF90DF90CF90BF90AF909F908F90089559
:1011D0008230A1F7E0905006F0905106809191384E
:1011E000909192388E159F0540F5E81AF90A0E94F1
:1011F000A5048090933890909438A0909538B09042
:1012000096389B01AC01281939094A095B09490143
:101210005A0139EC83169104A104B10498F44BE00F
:10122000E416F10478F460939338709394388093C3
:1012300095389093963883E0BFCF9C012E193F09D3
:101240007901D5CF10929738B9CF8431910509F043
:101250009CC00E94A504609398387093993880933D
:101260009A3890939B38C0901238D0901338E09001
:101270001438F0901538D701C6018E7F809312384C
:1012800090931338A0931438B0931538C0919738C1
:101290008C2F8D7F813009F091CF0E94A504AB0186
:1012A000BC018091933890919438A0919538B09179
:1012B00096384A015B01881A990AAA0ABB0A20914A
:1012C0005006309151068091913890919238821752
:1012D0009307D0F4F901E81BF90BCF01F9EC8F1655
:1012E0009104A104B10408F0ADCF0B9708F0AACF88
:1012F000C13069F440939338509394386093953893
:101300007093963882E058CF821B930BE7CFC3309F
:1013100009F054CF90918A3881E0890F83708093CF
:101320008A38E894C0F82FECF22290E0B0E0A0E018
:101330002CE1880F991FAA1FBB1F2A95D1F78C2972
:101340009D29AE29BF298093123890931338A0931A
:101350001438B093153810929738485E534061099D
:10136000710940938D3850938E3860938F38709305
:10137000903882E0CF91FF90EF90DF90CF90BF90B8
:10138000AF909F908F900C946E088034910509F077
:1013900015CF80918B3890918C38019680938B3843
:1013A00090938C380BCFFF920F931F93CF93DF93C3
:1013B000F82EC82FD0E0FE01EF5BF74CA081209102
:1013C0000A3830910B38AA23B9F0209108383091AF
:1013D0000938AF3F89F000910A3810910B38201B73
:1013E000310BB0E00E9423182FEF30E040E050E0D6
:1013F0000E94F317200F311F20930C3830930D38C3
:101400000E94A50460934E3870934F3880935038F3
:10141000909351380E94A50460934A3870934B38DA
:1014200080934C3890934D3880E00E946E08CC0F2A
:10143000DD1FC75ED74C88819981B0E0A0E0809322
:101440003C3890933D38A0933E38B0933F388FEFAF
:1014500080930E38F0924938DF91CF911F910F9110
:10146000FF9008958091123890911338A09114380C
:10147000B0911538B695A79597958795877008957B
:1014800090E0FC01EA56FB4420812F3F79F08C5715
:101490009B44DC01EC91B0E2EB9FF0011124FC5F76
:1014A0009085922381E019F480E008958FEF0895EC
:1014B000CF93DF93282F30E0E901CA56DB448881BF
:1014C0008F3F81F1A9014C575B44DA01EC91B0E206
:1014D000EB9FF0011124FC5F611127C0868390818E
:1014E0008923A1F4C9018E589B44DC019C9130975B
:1014F000F1F09830E0F47096E90FF11D9FB7F89481
:101500008081611117C0877F80839FBF205A3B4431
:10151000F901808190911138892321F0803161F0A7
:101520008038E1F0DF91CF9108958583D8CFF0E046
:10153000E0E0E4CF8860E8CF8881DA019C919130C7
:1015400059F4853010F0880F82959091010A8095AA
:1015500089238093010AE6CF880FF7CF1092A00667
:10156000E1CF90E0FC01EA56FB4420812F3FB9F027
:10157000FC01EC57FB44E08130E2E39FF0011124D1
:10158000FC5F60FF0DC021838E589B44DC018C9171
:10159000E80FF11D808961FF05C08860808B089588
:1015A0002283F2CF877FFACF1F93CF93DF93EC0193
:1015B0009E8590FDABC093FFA9C0977F9E87EF8566
:1015C000F8899F89188D9111A5C0A9853A85632F47
:1015D000607CE13022E0F20718F1CF018F5F91408B
:1015E0008A30910508F479C02A8120FF05C09695BC
:1015F00087955FEFEAEF0AC0813021E0920720F083
:10160000605CCF018F5E924051E0E6E07A2F7295E8
:101610007F70432F4F7032953F70232F23703AC055
:101620008FEF91E08E1B9F0B8A30910508F455C017
:101630002A8120FF03C096958795E6CF813021E06F
:101640009207B8F26034A8F260548FE091E08E1BEC
:101650009F0BCFCF352F320F343030F48F5C910990
:10166000232F803D9105B0F78631910538F5403143
:1016700028F0322F350F343030F1451B8230910580
:1016800028F5703138F0450F403128F1250F24300E
:10169000D0F54E1B8230910520F77295707F229510
:1016A000207F462B242BAF707A2B322F272F2987B0
:1016B0003A871B3040F51F5F188F28C0450F403117
:1016C000C0F64597D1CF4E1B232FD8CF750F703161
:1016D000D0F60297D3CF7E1BDDCFE98BFA8B8E85B8
:1016E00090E882FF94E020918B3830918C382F5F06
:1016F0003F4F20938B3830938C388F898917D9F2DC
:10170000188E9F8B03C08E8581608E87DF91CF916D
:101710001F91089549895A899F01241B350B90FF19
:1017200007C02B363F4FACF4143038F390E0E8CFCD
:1017300091FF11C01216130664F02A363F4F0CF4C5
:10174000A9C080910638415051098117B0F6498BE4
:101750005A8B94E0D2CF92FF25C02A368FEF3807FC
:101760000CF498C06B897C89261737070CF096C05B
:101770006091003870910138E0E0F2E0E61BF70B71
:10178000E417F50798F67E5F4617570778F62F3F60
:101790008FEF38070CF480C0223031050CF4ADCF48
:1017A00098E0ABCF93FF10C037FDD3CF6B897C8916
:1017B000261737070CF072C080910538811708F0A2
:1017C0009CCF4F5F5F4FC3CF94FF11C08091023811
:1017D000181730F083E190E00E949D0890E48DCFCF
:1017E0004B895C89241735070CF4B3CF86CF95FF5E
:1017F0000FC080910338181728F084E190E00E9410
:101800009D08A7CF4B895C89421753073CF375CFDE
:1018100096FF0DC080910438811708F487CF4D8959
:101820005E89241735070CF068CF90E266CF97FFEA
:1018300064CF8E8582FD0AC08B899C8982179307AD
:10184000C4F490E410926238109263382F3F8FEF07
:1018500038078CF441505109498B5A8B209114065A
:101860003091150621503109209314063093150646
:1018700044CF94E0E7CF223031050CF43ECF4F5FE8
:101880005F4F498B5A8B20911406309115062F5FBC
:101890003F4FEACF91E031CF92E02FCF90E12DCFB3
:1018A000EF93FF93E0E8F8E38F938FB78F939F93C5
:1018B0007F9370E080819181805D9C4F80839183D4
:1018C000885E934018F0808391837F5F9281970FA9
:1018D000928380E09381981F93839481981F9483CF
:1018E0009581981F958396819F5F968397819F4FDF
:1018F000978390859F4F908791859F4F918781E037
:1019000080938D0A7F919F918F918FBF8F91FF91CF
:10191000EF911895EF93FF93F898ECE9F8E30C94A6
:101920009E0CEF93FF93F898ECE9F8E30C94CD0C40
:10193000EF93FF93ECE9F8E30C94FA0C2F932FB795
:101940002F938F939F93AF93BF936894CF93DF931D
:1019500020E0C085D8E09089DF01A90FB21FAF5AFF
:10196000BF4F8C9120E42C838A839F5F9F738D816E
:101970002785291302C08F7D8D83908BDF91CF91B6
:1019800016F00C943A05BF91AF919F918F912F91D2
:101990002FBF2F91FF91EF9118952F932FB72F9372
:1019A0003F938F939F93CF93DF93C085D8E0898136
:1019B00098818674880F3485382B82FD0DC0C585CB
:1019C00081E08C0F8F732685281791F0CE0FDF2FC3
:1019D00020E0D21F998B85873487DF91CF919F912B
:1019E0008F913F912F912FBF2F91FF91EF911895DC
:1019F0003064F2CF8F938FB78F939F93CF93DF9302
:101A0000C085D8E09D8188818C8187FDFCCF9F7B3C
:101A100090689D83DF91CF919F918F918FBF8F9120
:101A2000FF91EF9118951F920F920FB60F9211240C
:101A30001F932F933F934F935F936F937F938F9356
:101A40009F93AF93BF93CF93DF93EF93FF93C5E340
:101A5000D9E3E881F981838586FF56C080FF41C0C4
:101A6000158581FF38C08E81882359F08091173801
:101A700080935000EB85FC85309719F08E8190E0C3
:101A800009951C831D821886E985FA85309709F02F
:101A900009958D81882319F183E0909150009093EE
:101AA0001738917090935000E881F9818287FF91F7
:101AB000EF91DF91CF91BF91AF919F918F917F91E6
:101AC0006F915F914F913F912F911F910F900FBE9A
:101AD0000F901F9018951C831E821F82DDCF86E019
:101AE000DCCF8091173880935000EB85FC853097D0
:101AF00029F08E81882311F090E009951E821D82C5
:101B00001F82188682E0D0CF87FF2FC081FF1EC0C2
:101B1000887139F08A8183FF04C01D82877F8A83A0
:101B2000F1CF8B818F5F8B838A8188608A83A885C0
:101B30008D81A81738F7AC0FBD2FB11D1D968C9164
:101B4000858788858F5F888783E0AECF8585EE8126
:101B5000E03258F4EC0FFD2FF11D85A78E818F5FC9
:101B60008E83803288F386E09FCF80E09DCF1F92E6
:101B70000F920FB60F9211242F933F934F935F93C1
:101B80006F937F938F939F93AF93BF93CF93DF9385
:101B9000EF93FF93C0E0D6E0E0915C38F0915D38C0
:101BA0003097F1F018823B858889998924852F70B8
:101BB00002C0969587952A95E2F78787908B868550
:101BC00088608687868582FF23C0868531FF1BC09B
:101BD0008260868780E190E08093643890936538D6
:101BE000FF91EF91DF91CF91BF91AF919F918F9135
:101BF0007F916F915F914F913F912F910F900FBE09
:101C00000F901F9018958D7F868788E090E0E4CF35
:101C1000808191810E941B07E3CF1F920F920FB624
:101C20000F9211242F933F934F935F936F937F9362
:101C30008F939F93AF93BF93EF93FF930E94B70D42
:101C4000FF91EF91BF91AF919F918F917F916F9194
:101C50005F914F913F912F910F900FBE0F901F906A
:101C60001895ECE9F8E31282138288EE93E0A0E085
:101C7000B0E084839583A683B7832CEA34EB20837A
:101C8000318320E038E02087318712861386EDE229
:101C9000F9E31282138284839583A683B7838EEB44
:101CA00094EB8083918380E198E080879187809195
:101CB000123890911338A0911438B0911538809350
:101CC000823990938339A0938439B09385390895EC
:101CD000CF93DF93CDB7DEB76197CDBFDEBF88ED81
:101CE00090E084BF90936100E0E0F6E083E58283BA
:101CF0008DE0858380E2838381E0808310920202FD
:101D00008093030A9EEF9093260A9093270A9BE004
:101D10009093000AE0E8FAE02DEF31E026A737A71C
:101D2000118290E89283848781E180837894809106
:101D300000148983809101148A83809102148B831B
:101D4000809103148C83809104148D8380910514F9
:101D50008E83809106148F838091071488878981F0
:101D60009A818E3F9A4CF9F42B813C818D819E8122
:101D7000A901480F591F425055436F817885461776
:101D8000570789F42817390770F4AC01421B530B2D
:101D90004438534040F020930A3830930B388093F6
:101DA000083890930938E9E1F8E3A1E4B8E380E862
:101DB000119211928D9398E3E932F907C9F71092C5
:101DC00049388FEF80930E38109218388091193867
:101DD00090911A38B0E0A0E080933C3890933D3861
:101DE000A0933E38B0933F3862E08CE00E94B10A85
:101DF00062E08BE00E94B10A62E08AE00E94B10AD0
:101E00008AE00E94400A14E2811110E28BE00E94F5
:101E1000400A92E0811190E0190F8CE00E94400A84
:101E200091E0811190E0910F8091373981FD1AC0C6
:101E300082FD18C08091010284FFA6C086E08093D5
:101E4000060480913739846080933739E0913539C1
:101E5000F0913639892F90E0880F991F8487168674
:101E600081EE818781EF95E080933E3990933F39F1
:101E70008FE797E0809340399093413961E087E0A4
:101E80000E94B10A60E082E00E94B10A61E086E04F
:101E90000E94B10A61E080E00E94B10A61E081E045
:101EA0000E94B10A1092000A809111388F7E8093AF
:101EB00011388FE08093050A11E01093030A80E641
:101EC0008093010A8EEF8093270A10922B0A1092BA
:101ED0002D0A0DE00093000A61E086E00E94580A96
:101EE00061E087E00E94580AE0E4F6E083E582833F
:101EF000058380E28383108382E0809346061093FB
:101F0000410683E0809340061093480686E698E3F6
:101F100098330CF447C0E0915E38F0915F38309709
:101F2000C1F580935E3890935F3810926A381092B2
:101F30007D3810926B3810926C3880E092E080937C
:101F40006D3890936E3880912306826080932306CB
:101F5000A2E5B4EB92E088E024E090FD9CC08F5FA6
:101F6000969511968031C9F784E090E080936838A7
:101F70009093693887E695E080936F389093703836
:101F800083E0809371380EC083E08093260459CF9C
:101F9000FC01808191810097D9F7A8E3E636FA0722
:101FA00009F070C088EC90E08093793890937A388B
:101FB00022E330E020937B3830937C3810927238E3
:101FC0002093063820930538809300389093013889
:101FD0008FEF8093043882E0809302388093033837
:101FE00081E080937F38F8948091323810923238B3
:101FF00090903138109231389091303810923038BA
:10200000B0900738BFEFB0930738E0902F38D12C4D
:10201000F12CEE2031F0F0902D38D0902E38109227
:102020002F38A0902C3810E000E0C12CAA2041F0FD
:10203000C090293800912A3810912B3810922C38F2
:1020400078949923A9F1F89410922B0A10922D0AF2
:1020500060E080E00E94580A60E081E00E94580A37
:102060008DE090EFA7E0B0EB8093003F9093013FAD
:10207000A093023FB093033F88ED91E084BF90931B
:102080004100FFCF86E698E38083918384818F5F50
:1020900080936A384CCF8E3008F061CF1896EC915F
:1020A0001897EE2309F45BCFF0E0FC5F208357CF55
:1020B000882341F00E94320A833009F07DC782E014
:1020C0000E946E08992099F00E94320A833079F0BC
:1020D00010923B380E94A5046093373870933838CB
:1020E0008093393890933A3884E00E946E08EE204D
:1020F00009F44CC0E7E0EF1508F448C08091493876
:10210000F81289C20E94320A823009F059C2EF2DBA
:10211000F0E0EF5BF74CD08220910A3830910B3819
:10212000DD20C9F02091083830910938FFEFDF1623
:1021300091F0E0900A38F0900B382E193F09AD2D40
:10214000B0E00E9423182FEF30E040E050E00E9402
:10215000F3172E0D3F1D20930C3830930D3880E07F
:102160000E946E080E94A50460934E3870934F3809
:1021700080935038909351380E94A50460934A3858
:1021800070934B3880934C3890934D3857E05B15E3
:1021900050F080914938B81631F00E94320A8330ED
:1021A00011F0B0920E38AA2039F167E06C1520F1D9
:1021B000802F8770823051F4C80123E0969587956F
:1021C0002A95E1F78F7081508A30B0F4EC2DF0E061
:1021D000EE0FFF1FE75EF74C0083118380914938B3
:1021E000C8120AC030E020E000933C3810933D381C
:1021F00020933E3830933F3880917F38882301F117
:1022000010927F3810922B0A10922D0A0E946904B6
:102210008B018AE0C82ED12CE12CF12C0E9469049C
:10222000601B710B683E734008F403C2C114D104F3
:10223000E104F10409F0F5C110927D3810927E3866
:102240000E94A5044B015C010091500610915106BB
:10225000980150E040E02A873B874C875D87CA01A0
:10226000B8010E9400192DEC3CEC4CE45DE30E94A7
:10227000B71920E030E040E05FE30E94B7196B013E
:102280007C0123E333E343E75FE3609156387091C9
:10229000573880915838909159380E94B7199B014E
:1022A000AC01C701B6010E9459186B017C01C092B4
:1022B0005638D0925738E0925838F09259380E94E8
:1022C000320A782E809197388230B9F48091933811
:1022D00090919438A0919538B0919638A5019401C9
:1022E000281B390B4A0B5B0BDA01C901893C9105AC
:1022F000A105B10510F01092973860910F387091D8
:102300001038072E000C880B990B0E9402199B01B4
:10231000AC01C701B6010E94B21918160CF090C1A9
:10232000C701B6010E94CA189B0160930F387093D1
:102330001038AB01485051094093543850935538E8
:10234000772079F04091523850915338241735074F
:1023500041F080928D3890928E38A0928F38B09252
:102360009038609352387093533832E0731609F402
:1023700060C5371508F487C1772009F443C241E0EE
:10238000741609F43FC32091523830915338E091CC
:102390000A38F0910B38E217F30708F0C2C54091F4
:1023A0000838509109382417350708F0BCC52E1B92
:1023B0003F0BAFEFB0E00E9423184E1B5F0B9A015A
:1023C00050E040E00E94F31780911238909113384A
:1023D000A0911438B091153830E8239FA001112442
:1023E000052E000C660B770B8F779078A170B07F6D
:1023F000482B592B6A2B7B2B8A859B85AC85BD8509
:1024000021E1880F991FAA1FBB1F2A95D1F78827A2
:102410009927AE7FBF70842B952BA62BB72B8F7877
:102420004091493850E070E060E034E0440F551FBF
:10243000661F771F3A95D1F740775527662777278C
:10244000842B952BA62BB72B80931238909313389F
:10245000A0931438B0931538F89480911238909165
:102460001338A0911438B091153880938239909325
:102470008339A0938439B093853978940E94A50458
:102480006B01809164389091653888719927892B08
:1024900009F455C580916238909163380097A9F08E
:1024A00020916438309165380E94D40A8091623856
:1024B00090916338892B09F038C5109260381092DA
:1024C0006138109264381092653880915A38909132
:1024D0005B38C81AD90AB4E1CB16D10408F455C048
:1024E000449680935A3890935B38809164389091E9
:1024F0006538892B09F049C0E0E0F6E08091643846
:1025000090916538892B09F040C080915E38909198
:102510005F38DC0112962D913C91108E213009F02C
:1025200033C540EE408F168E1082138243E04387FE
:1025300033272093603830936138A0916238B0918E
:102540006338109709F42CC582E082878483519602
:102550008D919C91529753962D913C915497820F57
:10256000931F1C962C911C972F7002C0880F991FE7
:102570002A95E2F7848B958BE4E0F0E0E0936438F1
:10258000F0936538CD010E941B0780912B0A8111C1
:1025900011C580912D0A81110DC50E94A504AB01C2
:1025A000BC0151706627772781E0403851056105ED
:1025B000710508F080E0682F87E00E94580A13CD6B
:1025C0008111E4CDEF2DF0E0EF5BF74CD08220914C
:1025D0000A3830910B38DD20C9F02091083830914D
:1025E00009384FEFD41691F0E0900A38F0900B388C
:1025F0002E193F09AD2DB0E00E9423182FEF30E0D7
:1026000040E050E00E94F3172E0D3F1D20930C3840
:1026100030930D38A7CDEF2DF0E0EF5BF74CD08273
:10262000B5CD81E0C81AD108E108F10808511C4F66
:10263000F5CDC114D104E104F10409F0EFCDFCCDD6
:102640006091543870915538072E000C880B990B07
:102650000E9402199B01AC01C701B6010E94C51876
:1026600087FF83CEC701B6010E94CA189B01609301
:10267000543870935538AB01485F5F4F40930F3823
:10268000509310385DCE53E0751609F403C464E02E
:10269000761279CE80913B38813009F427C408F452
:1026A000FCC3823009F06FCE10922B0A10922D0AD3
:1026B0006091353870913638009133381091343844
:1026C000CB01801B910B8D37FCEF9F0724F08438E2
:1026D00093400CF4A8C090E080E00E9400194B01E8
:1026E0005C01B80190E080E00E9400192B013C01E0
:1026F00022E538EB4EE75FE3C501B4010E94B7194C
:102700006B017C0120E037ED43EA5BE3C301B201DA
:102710000E94B7199B01AC01C701B6010E9459186C
:1027200020E030E040E05FE30E94B7190E94D1183A
:102730006B0160930A3870930B3822E538EB4EE753
:102740005FE3C301B2010E94B7192B013C0120E0F5
:1027500037ED43EA5BE3C501B4010E94B7199B0161
:10276000AC01C301B2010E94591820E030E040E002
:102770005FE30E94B7190E94D118609308387093E4
:1027800009384EEF5AEC49835A83CB82DC826D8341
:102790007E836C0D7D1D625075436F837887AE011B
:1027A0004F5F5F4FA0E0B4E1FA018191AF019C91CE
:1027B000891769F0E0E0F0E10FB622812370E9F7B4
:1027C000F8948C938DE984BF83E080830FBE1196CB
:1027D000A830F4E1BF0741F70E94A50460934E388A
:1027E00070934F3880935038909351380E94A504CD
:1027F00060934A3870934B3880934C3890934D389F
:1028000080E012C080914E3890914F38A09150389E
:10281000B0915138805C904EAF4FBF4F88159905ED
:10282000AA05BB0520F483E00E946E08ACCD809120
:10283000123880FF12C08091983890919938A091F9
:102840009A38B0919B38C296A11DB11D8815990583
:10285000AA05BB0510F481E0E7CF80910E388F3FC9
:1028600019F00E94D3098FCD60910C3870910D380A
:10287000072E000C880B990B0E940219A7019601E4
:102880000E9458182AE939E949E95FE30E94B7191B
:102890002B013C0120E030E040E850E40E94B219F6
:1028A000181624F520E030E040EA52E4C301B201FA
:1028B0000E9459186B017C0120E030E04EE753E4A0
:1028C0000E94B2196EEF181624F0C701B6010E94DB
:1028D000D11860932B0A10922D0A80924A38909258
:1028E0004B38A0924C38B0924D384DCD20E030E0BE
:1028F00040E850ECC301B2010E94C51887FF1CC01C
:10290000A301920160E070E080EA92E40E9458180E
:102910006B017C0120E030E04EE753E40E94B219E5
:102920006EEF181624F0C701B6010E94D11810925C
:102930002B0A60932D0AD1CF10922B0A10922D0AE8
:1029400080914A3890914B38A0914C38B0914D38D5
:10295000845D9E4FAF4FBF4F88159905AA05BB05F3
:1029600008F011CD20E030E040E850E4C701B601A6
:102970000E94C51887FF1AC010925438109255381B
:1029800088E090E080930F3890931038F8EE8F1A1B
:10299000F3E09F0AA108B10880928D3890928E389A
:1029A000A0928F38B092903882E03ECF20E030EC99
:1029B0004EE754E4C701B6010E94B21918166CF430
:1029C000AFEFB3E0A0930F38B0931038EBEFF3E024
:1029D000E0935438F0935538D9CF20E030E040E808
:1029E00050E4C701B6010E9458180E94CA186093AB
:1029F000543870935538685F7F4F60930F387093E9
:102A00001038C4CF209152383091533820900A3872
:102A100030900B382216330608F077C04091083802
:102A2000509109382417350708F071C0221933096D
:102A3000AFEFB0E00E942318421953099A0150E009
:102A400040E00E94F317E0914938F0E0EF5BF74C6B
:102A5000208380918D3890918E38A0918F38B091DD
:102A6000903888519C4FAF4FBF4F88159905AA05E4
:102A7000BB0508F04EC04091123850911338609158
:102A800014387091153840FD44C080919838909169
:102A90009938A0919A38B0919B3888519C4FAF4F8C
:102AA000BF4F88159905AA05BB0598F510922B0A0A
:102AB00010922D0A80914038882309F475CF109226
:102AC0004038DB01CA01FFE0B695A7959795879539
:102AD000FA95D1F78F5F837090E0B0E0A0E01FE03F
:102AE000880F991FAA1FBB1F1A95D1F75F776E7FBA
:102AF000842B952BA62BB72B8093123890931338E9
:102B0000A0931438B09315384FCF20E09CCF2FEF0F
:102B10009ACF40903C3850903D3860903E3870904D
:102B20003F38842D8770813009F0B6C0D301C201CF
:102B300077E0B695A795979587957A95D1F78770A1
:102B400021E4829FC001112467E070E00E94DF173A
:102B5000EDEBBE2EB60EB101645C7F4F90E080E0DD
:102B60000E9400199B01AC01C701B6010E94C51863
:102B700087FF40C0B101685F7F4F90E080E00E9416
:102B800000199B01AC01C701B6010E94B2191816C9
:102B90008CF5B10190E080E00E940019A701960138
:102BA0000E94581820E030E040E450E40E94B71939
:102BB0009B01AC0160E070E086E193E40E9458184C
:102BC0006B017C016B2D70E090E080E00E940219A7
:102BD0009B01AC01C701B6010E94B21918162CF076
:102BE000C701B6010E94D118B62E10922B0AB092DE
:102BF0002D0AC9CB0091083810910938B8016C53DF
:102C0000710990E080E00E9400199B01AC01C701AE
:102C1000B6010E94B21918160CF03CC1B8016850F8
:102C2000710990E080E00E9400199B01AC01C7018E
:102C3000B6010E94C51887FF2DC1B80190E080E061
:102C40000E940019A70196010E94581820E030E068
:102C500040E450E40E94B71920E030E046E153E43C
:102C60000E9459186B017C016B2D70E090E080E0B0
:102C70000E9402199B01AC01C701B6010E94B21962
:102C800018162CF0C701B6010E94D118B62EB092CA
:102C90002B0A10922D0A77CB823009F0FBC0D301AA
:102CA000C20153E0B695A795979587955A95D1F7A8
:102CB000382F3F7039870091083810910938021970
:102CC00013095801B694A794313009F067C09501F3
:102CD000220D331DB90190E080E00E940019A70188
:102CE00096010E9458180E94CA186B01CB0177FF09
:102CF00004C0882799278C199D0909970CF4CAC02C
:102D0000D301C20147E0B695A795979587954A9557
:102D1000D1F78770A1E48A9FC001112467E070E0B9
:102D20000E94DF171DEB160FB601DD0C880B990B07
:102D30000E94021920E030E040E450E40E94B719FC
:102D40006B017C01612F70E090E080E00E9402192D
:102D50004B015C0120E030E0A901C701B6010E94EF
:102D6000B21918160CF049C020E030E046E153E4F7
:102D7000C701B6010E9459186B017C01AC019B018F
:102D8000C501B4010E94C51887FD05C0C701B60181
:102D90000E94D118162F10932B0A7BCF49854150E2
:102DA000550B4A01CA01550FAA0BBB0B8E879F8793
:102DB000A88BB98BC701B6010E94D1189B012219BB
:102DC0003309D4010E941B186A0D7B1D811D911DC2
:102DD000980150E040E00E94F3179985291710F000
:102DE000292F215030E0D8010E9423182E853F85DD
:102DF000488959890E94F3176BCFA701960160E0BB
:102E000070E086E193E40E9458186B017C01AC01EC
:102E10009B01C501B4010E94C51887FD05C0C7010B
:102E2000B6010E94D118162F10922B0A10932D0A6A
:102E3000AACA10922B0A10922D0A80910E388F3F49
:102E400009F00FCD80918D3890918E38A0918F38F8
:102E5000B091903888519C4FAF4FBF4F881699065C
:102E6000AA06BB0608F4F7CC8091123880FF8BCA03
:102E70008091983890919938A0919A38B0919B3868
:102E8000C296A11DB11D88159905AA05BB0508F4B8
:102E9000E2CC79CA10922B0AFCCE809137389091FF
:102EA0003838A0913938B0913A3884529A4FAF4FA0
:102EB000BF4F88159905AA05BB0590F400933538D6
:102EC0001093363881E080933B380E94A5046093CC
:102ED0003738709338388093393890933A3853CADA
:102EE00010922B0ABEEFB0932D0A4DCA809137384D
:102EF00090913838A0913938B0913A3884529A4F2D
:102F0000AF4FBF4F88159905AA05BB0530F4009354
:102F100033381093343882E0D6CFEEEFE0932B0AAB
:102F2000B8CE20E051CA2FEF4FCA82E080930A0644
:102F300044E050E04093643850936538C6CA8091AD
:102F4000643890916538029709F0BFCA10926438CE
:102F50001092653800915E3810915F3801151105A7
:102F600061F4809160389091613880620E949D0880
:102F70001092603810926138A8CAC8010E94D40A21
:102F8000D8010D911C91EACF243011F448E2CACA4D
:102F90002C3009F0FACA48E2408F46E8468FC4CA8E
:102FA00021E02287148221E030E0209364383093BE
:102FB0006538E9CA81E0FFCA91108AC898C897FBB2
:102FC000072E16F4009407D077FD09D00E9444180C
:102FD00007FC05D03EF4909581959F4F089570951C
:102FE00061957F4F0895A1E21A2EAA1BBB1BFD011C
:102FF0000DC0AA1FBB1FEE1FFF1FA217B307E407D8
:10300000F50720F0A21BB30BE40BF50B661F771F2F
:10301000881F991F1A9469F760957095809590950F
:103020009B01AC01BD01CF010895EE0FFF1F05907C
:10303000F491E02D09940E942318332312F48A1B83
:103040009B0B0C943418A29FB001B39FC001A39FA7
:10305000700D811D1124911DB29F700D811D1124D1
:10306000911D08950E942318B7FF0895821B930BAA
:1030700008950E942318A59F900DB49F900DA49FC2
:10308000800D911D11240895AA1BBB1B51E107C09F
:10309000AA1FBB1FA617B70710F0A61BB70B881FE8
:1030A000991F5A95A9F780959095BC01CD01089577
:1030B0005058BB27AA270E9470180C9478190E94B8
:1030C0006A1938F00E94711920F039F49F3F19F401
:1030D00026F40C9467190EF4E095E7FB0C94611943
:1030E000E92F0E94891958F3BA17620773078407FA
:1030F000950720F079F4A6F50C94AB190EF4E09541
:103100000B2EBA2FA02D0B01B90190010C01CA01A1
:10311000A0011124FF27591B99F0593F50F4503E4C
:1031200068F11A16F040A22F232F342F4427585F3E
:10313000F3CF469537952795A795F0405395C9F756
:103140007EF41F16BA0B620B730B840BBAF091500E
:10315000A1F0FF0FBB1F661F771F881FC2F70EC0AD
:10316000BA0F621F731F841F48F487957795679580
:10317000B795F7959E3F08F0B0CF9395880F08F06C
:103180009927EE0F9795879508950E943D1908F4A9
:1031900081E008950E94D1186894B1110C94AC1983
:1031A00008950E94911988F09F5798F0B92F992798
:1031B000B751B0F0E1F0660F771F881F991F1AF022
:1031C000BA95C9F714C0B13091F00E94AB19B1E0C3
:1031D00008950C94AB19672F782F8827B85F39F0C2
:1031E000B93FCCF3869577956795B395D9F73EF4BB
:1031F00090958095709561957F4F8F4F9F4F089563
:10320000E89409C097FB3EF4909580957095619580
:103210007F4F8F4F9F4F9923A9F0F92F96E9BB2736
:103220009395F695879577956795B795F111F8CFB2
:10323000FAF4BB0F11F460FF1BC06F5F7F4F8F4F1D
:103240009F4F16C0882311F096E911C0772321F013
:103250009EE8872F762F05C0662371F096E8862FAB
:1032600070E060E02AF09A95660F771F881FDAF702
:10327000880F9695879597F90895990F0008550F2F
:10328000AA0BE0E8FEEF16161706E807F907C0F0EC
:1032900012161306E407F50798F0621B730B840BF4
:1032A000950B39F40A2661F0232B242B252B21F4CE
:1032B00008950A2609F4A140A6958FEF811D811D6E
:1032C000089597F99F6780E870E060E008959FEFA8
:1032D00080EC089500240A941616170618060906AD
:1032E000089500240A94121613061406050608957C
:1032F000092E0394000C11F4882352F0BB0F40F404
:10330000BF2B11F460FF04C06F5F7F4F8F4F9F4F43
:10331000089557FD9058440F551F59F05F3F71F0C5
:103320004795880F97FB991F61F09F3F79F087952C
:103330000895121613061406551FF2CF4695F1DFB5
:1033400008C0161617061806991FF1CF8695710545
:10335000610508940895E894BB2766277727CB0179
:1033600097F908950E943D1908F48FEF08950E947F
:10337000CA190C9478190E946A1938F00E947119C0
:1033800020F0952311F00C9461190C946719112405
:103390000C94AC190E94891970F3959FC1F3950F95
:1033A00050E0551F629FF001729FBB27F00DB11DC9
:1033B000639FAA27F00DB11DAA1F649F6627B00D59
:1033C000A11D661F829F2227B00DA11D621F739F42
:1033D000B00DA11D621F839FA00D611D221F749F50
:1033E0003327A00D611D231F849F600D211D822F97
:1033F000762F6A2F11249F5750409AF0F1F08823BE
:103400004AF0EE0FFF1FBB1F661F771F881F9150EA
:103410005040A9F79E3F510580F00C9461190C941F
:10342000AC195F3FE4F3983ED4F3869577956795A2
:10343000B795F795E7959F5FC1F7FE2B880F911D14
:103440009695879597F90895F894FFCF3F1C0B0543
:103450000301141516173110505152535455353677
:10346000101080000000001010100000000000008C
:103470001000040506070504030201000001020311
:10348000010203000000000001010101010102022C
:1034900002020000000010204080201008040201F9
:1034A0000102040802040801000000003B05B10409
:1034B000DE0488050F05ED04010500000000D105BC
:1034C000F40618079D05CB05B905A505960003036D
:1034D000C80F0FFFF20328000002FF0800FF0400DE
:0234E0000000EA
:00000001FF
