:0400000300000600F3
:100000000C943E000C9450000C9450000C94500042
:100010000C9450000C9450000C9450000C94500020
:100020000C9450000C9450000C9450000C94500010
:100030000C9450000C9450000C9450000C94500000
:100040000C9450000C9450000C9450000C945000F0
:100050000C9450000C9450000C9450000C945000E0
:100060000C9450000C9450000C9450000C945000D0
:100070000C9450000C9450000C94500011241FBE9E
:10008000CFEFCDBFDFE3DEBF28E3A0E0B8E301C0E0
:100090001D92A337B207E1F70E949A010C948A02DD
:1000A0000C940000F8941092190810921C081092F9
:1000B0004001E0E0F3E00995FFCF809102108370EA
:1000C000E1F708950F931F93CF93DF9390916E38CC
:1000D000911107C080EB80935C3881E080936D388C
:1000E0007FC080914438833009F420C180F481308E
:1000F00009F453C0823071F7933108F471C08091D4
:100100007138811172C083E08093433869C08530B3
:10011000B9F108F4DCC08630E9F6953008F460C027
:10012000409145385091463854274527542770E070
:1001300060E0809147389091483898278927982720
:100140008A019B01080F191F211D311D0130F0E4A8
:100150001F072105310520F000E010E420E030E029
:100160008FEF9FEFFA01F0584017510762077307AE
:1001700008F4C9C021E020935C3890935D3809C031
:1001800081E080935C388091723880935D388091F3
:10019000433880935E3883E0A1CF933008F12091FB
:1001A000453830914638322723273227109243387A
:1001B000A9015650413C594328F4A9014F735527D2
:1001C000452B31F082E0809343381092713808C09B
:1001D00020934138309342388093713810924038E0
:1001E000DF91CF911F910F910895C5E4D8E345E5C4
:1001F00058E3DE018FEF9FEF2D91922728E0BC019D
:10020000880F991F77FF04C0F1E28F27F0E19F2745
:100210002150A9F74A175B0779F72091553830919B
:1002200056383227232732272817390711F081E063
:100230006BCF80914038E82FE295E07FF0E0E0500E
:10024000F84C99919193AC17BD07D9F78F5F8093C4
:100250004038843028F2C0914138D09142380E9411
:100260005D008DE994E084BF909300100E945D00D2
:10027000E0E0F8E39E012050384B8181908189278E
:1002800098278927D901AE0FBF1F8D939C93329673
:1002900088E3E034F80789F78DE993E084BF909311
:1002A00000100E945D0080910210982F947082FDD2
:1002B0009093433810924038C05CDF4FC093413870
:1002C000D0934238C13CDF4308F48ACF7ECF0E94EE
:1002D0005D008FEF9FEF8093008690930186CDE9BC
:1002E00082E0C4BF809300100E945D0080910210E4
:1002F000847094E0C4BF90930010811105CF81E019
:100300008093723862CFE0819E27E8E0DC01880F9D
:10031000991FB7FF04C0F1E28F27F0E19F27E1505A
:10032000A9F74F5F5F4F6F4F7F4F1CCF81E08093E6
:10033000703856CFCF93DF9300D0CDB7DEB7809122
:1003400040004091003F5091013F6091023F709109
:10035000033F809340001092003F1092013F1092A3
:10036000023F1092033F209100863091018684FF66
:1003700006C081E04D30504F6740704B09F080E07F
:1003800081702F3F320721F0811102C00E9452007C
:1003900081E02F3F3F4F09F080E080937238109248
:1003A000713880915004886080935004809151048A
:1003B0008860809351048091520488608093520435
:1003C00019821A8289819A81883E9340D8F180915E
:1003D000480420E282FF24E290E081FF92E033E0D3
:1003E0003093260480958170820F890F880F809347
:1003F0001C0881E28093190884E080932104109204
:10040000470189E28093400180EBF82E11E09CE0E7
:10041000E92E04E080911B0886FF36C080FF28C0CB
:1004200081FF1FC080916F38882391F00E94620085
:1004300010926F3810926E3810926C3883E080936F
:100440001A0850C089819A81019689839A83BACF0C
:1004500080916D388111F0CFF0925C3810936D3837
:10046000EBCF10926E3810926F3810926D38E6CF45
:1004700080916F38882331F00E94620010926F38AB
:1004800010926E3882E0DBCF87FF28C081FF15C055
:10049000E0916C38EE2311F08871A1F780916D38EE
:1004A000E81780F781E08E0F80936C38F0E0E45A13
:1004B000F74C808180931D08C1CF80911D08E09189
:1004C0006E38E83140F491E09E0F90936E38F0E082
:1004D000EC5BF74C808310936F38B0CF8C7011F0C9
:1004E000E0921B08809148019091490187FF0FC05D
:1004F0000093250480917038882309F48BCF809174
:10050000008690910186019609F484CF3FCF009335
:080510002604F0CFF894FFCFA0
:100600000C943F030C9467030C9467030C946703EA
:100610000C9467030C9467030C9467030C946703B2
:100620000C9467030C9467030C9467030C946703A2
:100630000C9467030C9467030C9467030C94FA0BF7
:100640000C9467030C9467030C9467030C94670382
:100650000C94D80C0C942E0D0C9467030C94670327
:100660000C94340C0C9467030C9467030C9467038C
:100670000C9467030C9467030C946703A20D112478
:100680001FBECFEFCDBFDFE3DEBF18E3A0E0B8E3CE
:10069000ECE4FFE302C005900D92A233B107D9F755
:1006A00029E3A2E3B8E301C01D92AA36B207E1F73D
:1006B00013E0CFE3D3E004C02197FE010E94001DA8
:1006C000CE33D107C9F70E94C70D0C946D1F0C944F
:1006D00000039FB7F89488E08093840A80918E0A83
:1006E00081FFFCCF80918D0AE091A20AF091A30ACC
:1006F0002091FB383091FC384091FD385091FE3804
:100700009FBF80FF07C0E730F10520F42F5F3F4F08
:100710004F4F5F4FBF0176956795CF01860F911DB3
:10072000E62FE695E695762F72957F70E71BFF0B17
:1007300067FD3196E80FF91FA0E3B3E00E94241D86
:100740006E0F7F1F811D911D08952FB7F894609142
:10075000F7387091F8388091F9389091FA382FBFB6
:100760000895DC011896ED91FC9184818860848362
:1007700008959C012B5C3F4FDC011F96EC911F9765
:100780001E968C91E81730F4E20FF32FF11D808153
:1007900090E008958FEF9FEF0895FC01DC01D5965E
:1007A00097858685981740F4A90FB11D2C919F5FFE
:1007B0009787822F90E008958FEF9FEF0895FC01B7
:1007C00086859785891B990B0895FC01A585A03224
:1007D00058F4A80FB92FB11D55966C9385858F5F7E
:1007E000858781E090E0089590E080E00895BF92D1
:1007F000CF92DF92EF92FF920F931F93CF93DF93ED
:100800007C016A01B62EEB010C2F0B1910E00C15C0
:100810001D0530F46991C7010E94E503892BA1F7FA
:10082000C801DF91CF911F910F91FF90EF90DF9062
:10083000CF90BF90089590E080E00895CF93DF932C
:10084000FC018091CB389091CC38309759F41092BC
:100850000A0682E090E08093CF389093D038DF9101
:10086000CF910895268524FD05C022813381281764
:10087000390721F00190F081E02DE7CFE093C738F0
:10088000F093C838C0E0D6E0309749F346859485A8
:1008900044FD32C08789882379F1A92FA295AF70D2
:1008A000B0E0A252B1442C9185858B3138F58C5F34
:1008B000678170856AA77BA7658176816EA37FA318
:1008C000618572856A8F7B8F2C8F8D839F70998352
:1008D0008385282F22952F7030E0288B398B8F70DD
:1008E00080618A83888D8360888F81E8888381E036
:1008F00042FD06C08887B3CF2FE3D6CF8FE1D8CF94
:100900008987ADCFCF92DF92EF92FF920F931F9323
:10091000CF93DF9380917C38882309F40BC1C0907A
:100920007D38E0907E38D0907F38F09080382091EC
:100930008338309184388091813890918238821741
:10094000930708F4C901EC01D695C795D695C795CC
:10095000C80FD91FCD3D85E0D80710F0CCEDD5E00C
:10096000C83CD10510F4C8ECD0E0BE0190E080E0B6
:100970000E94491E60931B3870931C3880931D3869
:1009800090931E389E01AFE0B0E00E940E1D6C50A7
:100990007E4F8F4F9F4F28EE33E040E050E00E94A3
:1009A000BF1C2531310510F024E130E0283031053D
:1009B00010F428E030E0B90190E080E00E94491E88
:1009C00060931F3870932038809321389093223899
:1009D0002C2D30E061E0D1106D2D70E0CE010E9431
:1009E000971C260F371F2C5E3F4F2238310514F419
:1009F00022E830E0EE2DF0E061E0F1106F2D70E0C4
:100A0000CE010E94971C6E0F7F1F6C5E7F4F621796
:100A100073070CF4B9016F3F710514F06EEF70E0CD
:100A200060930038709301380D2D10E0CF2DD0E089
:100A3000C8018C0F9D1F0196969587958B35910562
:100A400010F08AE590E08830910510F488E090E09D
:100A5000BC0190E080E00E94491E9B01AC0161EE68
:100A60007AE784E99FE30E94A11D60931738709391
:100A700018388093193890931A386C2D70E090E0F4
:100A800080E00E94491E6093A2387093A33880933F
:100A9000A4389093A53860E070E080E89FE3DD2003
:100AA00071F0B801110F880B990B0E944B1E9B012E
:100AB000AC0160E070E080E89FE30E94A11D6093BC
:100AC0009A3870939B3880939C3890939D386E2D04
:100AD00070E090E080E00E94491E6093A638709319
:100AE000A7388093A8389093A93860E070E080E838
:100AF0009FE3FF2071F0BE01DD0F880B990B0E9470
:100B00004B1E9B01AC0160E070E080E89FE30E9417
:100B1000A11D60939E3870939F388093A038909366
:100B2000A138DF91CF911F910F91FF90EF90DF904F
:100B3000CF90089544E4E42E56E5C52E6DE1F62EDF
:100B40007DE1D72E80EC91E0FECECF92DF92EF9246
:100B5000FF921F93CF93DF93182FC0910F38D0913E
:100B600010388091113890911238C81BD90B9E0112
:100B7000A8EEB3E00E940E1D2CEB32E040E050E006
:100B80000E94BF1C69019E01220F331F220F331FD9
:100B90002C193D09A12FB0E00E940E1D2EEF30E070
:100BA00040E050E00E94BF1C2C0D3D1DB90190E0BB
:100BB00080E00E94491E6093AA387093AB388093FE
:100BC000AC389093AD38DF91CF911F91FF90EF90AB
:100BD000DF90CF900895FC01808191812281338143
:100BE000820F931F24813581820F931F23853485C3
:100BF000820F931F25853685820F931F2681820FD2
:100C0000911D27813185230F3327331F820F931FB7
:100C100020853285230F3327331F820F931F0895BA
:100C2000CF92DF92EF92FF92CF93DF93009729F15B
:100C3000EC0181E199E30E94CD0380933238823147
:100C400008F0E4C0E82FF0E0E85DF94F0C94001DD7
:100C5000FA06FA060607FA063A064406FA064806AF
:100C6000FA06FA06FA06FA0606074C06560686063D
:100C7000A706FA0681E08093F438DF91CF91FF90C8
:100C8000EF90DF90CF90089581E080935438F5CFB6
:100C900081E080935338F1CF229779F781E199E38E
:100CA0000E94CD03877080930E38E7CFC230D10504
:100CB00041F481E199E30E94CD0387708093353838
:100CC000DCCFCE0103970297C0F681E199E30E9441
:100CD000CD0387708093093881E199E30E94CD03A9
:100CE00080930A3881E0C430D10509F080E0809318
:100CF0000C388FEF249721F481E199E30E94CD0312
:100D000080930B3881E080930D38B7CFC230D10586
:100D100081F2249709F0B1CF81E199E30E94CD03DC
:100D2000877080934E3881E199E30E94CD03C82FEC
:100D300081E199E30E94CD0320E0822B9C2B8093DC
:100D40004F389093503881E08093513896CF259753
:100D500009F044C081E199E30E94CD036C0181E177
:100D600099E30E94CD030D2C000CEE08FF08FC2C2B
:100D7000EE24DD24CC24092E000CAA0BBB0BDC01D5
:100D800099278827C82AD92AEA2AFB2A81E199E3E8
:100D90000E94CD03EC0181E199E30E94CD03AC01F7
:100DA000CE01DD0FAA0BBB0BBA2FA92F982F8827D6
:100DB000052E000C660B770BC42AD52AE62AF72AE3
:100DC0008C299D29AE29BF2983359041A740B04B7E
:100DD00009F053CF81E0809352384FCF90911F3963
:100DE00080912039981709F448CF81E199E30E9456
:100DF000CD03F4CF90911F3980912039981709F4D1
:100E00003CCF81E199E30E94CD03F4CF90911F394B
:100E100080912039981709F430CF81E199E30E943D
:100E2000CD03F4CFCF93DF9300D000D0CDB7DEB7A2
:100E300099838A837B836C8344E050E0BE016F5FBB
:100E40007F4F81E199E30E94F7032496CDBFDEBF77
:100E5000DF91CF910895CF93DF9300D0CDB7DEB768
:100E600099838A8342E050E0BE016F5F7F4F81E14A
:100E700099E30E94F7030F900F90DF91CF910895AF
:100E8000CF92DF92EF92FF92CF93DF93CDB7DEB791
:100E90002C97CDBFDEBF8091323865E0882309F4FE
:100EA0009CC0813129F490E080E00E942B070CC0A7
:100EB0008130A1F460916639709167398091683909
:100EC000909169390E9412072C96CDBFDEBFDF9149
:100ED000CF91FF90EF90DF90CF900895833019F479
:100EE0000E94A503EFCF863029F48091EA389091D3
:100EF000EB38DBCF4AE050E063E071E1883009F481
:100F00005BC0893059F48091EA389091EB38209198
:100F1000EC383091ED38821B930BC7CF8A3029F41F
:100F20008091EC389091ED38C0CF8B3029F48091CE
:100F3000003990910139B9CF823109F042C08091D6
:100F40007C38898380917E388A8380917D388B8339
:100F5000809180388C8380917F388D838091833815
:100F6000909184389E838F838091813890918238CC
:100F700098878987C0901B38D0901C38E0901D3826
:100F8000F0901E38C701B6010E941A1E7A87C70169
:100F9000B6010E941A1E6B8760911F38709120382D
:100FA00080912138909122380E941A1E6C874CE063
:100FB00050E0BE016F5F7F4F81E199E30E94F7032C
:100FC00083CF609191388D3041F08E3059F4E091AB
:100FD0003538F0E0E757F74C608181E199E30E94F2
:100FE000E50372CF8F3009F06FCFE0913538F0E034
:100FF000EE0FFF1FEA5CF74CF080618181E199E31D
:101000000E94E5036F2DE9CF8F3F9105E4F4823014
:101010002FEF920764F582E09FEF8093D138909391
:10102000D238282F2195611118C0322F20E020934B
:101030002B0A181619060CF430E030932D0A80E6BE
:101040008093010A08958EEF90E08093D1389093B9
:10105000D238282F382F662351F33EEF321B181653
:101060001906CCF40C9A30932D0A80E4E9CF8093D2
:10107000D1389093D238009751F481B1413029F49E
:10108000806381B91092010A08958F7CFACF1816F7
:1010900019063CF6DECF0D9A30932B0A80E2D0CFB2
:1010A00041E060E090E080E00C94040840E060E003
:1010B00090E080E00C9404080F931F9340912D382A
:1010C00050912E3860912F3870913038417F082F21
:1010D00010E0000F111F012E000C220B330B402BD0
:1010E000512B622B732B40932D3850932E386093E5
:1010F0002F3870933038882381F0109296381092F0
:10110000973810929838109299388150823010F0A8
:1011100010920C391F910F9108951092B238F5CFAB
:10112000CF92DF92EF92FF920F931F93CF93833171
:10113000910509F078C00E94A50360930D39709362
:101140000E3980930F399093103980912D389091FA
:101150002E38A0912F38B0913038816080932D388F
:1011600090932E38A0932F38B093303880910C395B
:1011700081111DC00E94A50360930839709309393D
:1011800080930A3990930B398091500690915106C3
:10119000809306399093073981E080930C39CF9181
:1011A0001F910F91FF90EF90DF90CF9008958230C4
:1011B000B1F70E94A503AB01BC0180910839909161
:1011C0000939A0910A39B0910B398A019B01081B9A
:1011D000190B2A0B3B0BD901C801893C9105A105CC
:1011E000B105F0F4209150063091510680910639F6
:1011F000909107398217930780F4F901E81BF90BE6
:10120000CF010B9768F440930839509309396093E4
:101210000A3970930B3983E0C0CF821B930BF1CF57
:1012200010920C39BCCF8431910509F09BC00E940B
:10123000A50360930D3970930E3980930F39909305
:101240001039C0902D38D0902E38E0902F38F09083
:101250003038D701C6018E7F80932D3890932E3879
:10126000A0932F38B0933038C0910C398C2F8D7FDC
:10127000813009F094CF0E94A503AB01BC0180919D
:10128000083990910939A0910A39B0910B398A0136
:101290009B01081B190B2A0B3B0BD901C801893C88
:1012A0009105A105B10508F0BBCF20915006309102
:1012B000510680910639909107398217930798F467
:1012C000F901E81BF90BCF010B9708F0A9CFC1304A
:1012D00069F4409308395093093960930A3970933F
:1012E0000B3982E05ACF821B930BEECFC33009F04B
:1012F00056CF9091FF3881E0890F83708093FF383B
:10130000E894C0F8FFECFF2290E0B0E0A0E02CE110
:10131000880F991FAA1FBB1F2A95D1F78C299D29D9
:10132000AE29BF2980932D3890932E38A0932F3863
:10133000B093303810920C39485E534061097109FE
:1013400040930239509303396093043970930539FF
:1013500082E0CF911F910F91FF90EF90DF90CF909F
:101360000C945C088034910509F019CF8091003904
:1013700090910139019680930039909301390FCFF4
:1013800080912D3890912E38A0912F38B09130381F
:10139000B695A7959795879587700895CF92DF9218
:1013A000EF92FF92CF930E94A5036B017C016091A5
:1013B000243870912538072E000C880B990B0E9459
:1013C0004B1E2091BF383091C0384091C1385091A8
:1013D000C2380E94FB1ECFEF18160CF4C1E00E9429
:1013E000C009811104C0809133388C1791F060914D
:1013F000003870910138072E000C880B990B0E9461
:101400004B1E609313387093143880931538909363
:101410001638C0933338C092AE38D092AF38E092CD
:10142000B038F092B138C0929238D0929338E092AE
:101430009438F092953880E0CF91FF90EF90DF9054
:10144000CF900C945C08FF920F931F93CF93DF9380
:10145000F82EC82FD0E0FE01E757F74CA08120916D
:10146000113830911238AA23B9F020910F383091F9
:101470001038AF3F89F00091113810911238201BBD
:10148000310BB0E00E940E1D2FEF30E040E050E045
:101490000E94BF1C200F311F209324383093253821
:1014A000FE01EA5BF74C80818F3F29F51092AA3844
:1014B0001092AB381092AC381092AD380E94CE0921
:1014C000CC0FDD1FCA5CD74C88819981B0E0A0E0C9
:1014D0008093853890938638A0938738B093883866
:1014E0008FEF80932338F0929138DF91CF911F9145
:1014F0000F91FF9008950E94A505E0CF1F93CF9311
:10150000DF93EC019E8590FDABC093FFA9C0977F50
:101510009E87EF85F8899F89188D9111A5C0A985AF
:101520003A85632F607CE13022E0F20718F1CF01A9
:101530008F5F91408A30910508F479C02A8120FF9D
:1015400005C0969587955FEFEAEF0AC0813021E0EC
:10155000920720F0605CCF018F5E924051E0E6E0A0
:101560007A2F72957F70432F4F7032953F70232FE3
:1015700023703AC08FEF91E08E1B9F0B8A3091054C
:1015800008F455C02A8120FF03C096958795E6CFC1
:10159000813021E09207B8F26034A8F260548FE005
:1015A00091E08E1B9F0BCFCF352F320F343030F4AC
:1015B0008F5C9109232F803D9105B0F7863191050D
:1015C00038F5403128F0322F350F343030F1451BDB
:1015D0008230910528F5703138F0450F403128F1FF
:1015E000250F2430D0F54E1B8230910520F77295DF
:1015F000707F2295207F462B242BAF707A2B322FC1
:10160000272F29873A871B3040F51F5F188F28C086
:10161000450F4031C0F64597D1CF4E1B232FD8CF71
:10162000750F7031D0F60297D3CF7E1BDDCFE98BDB
:10163000FA8B8E8590E882FF94E0209100393091FA
:1016400001392F5F3F4F20930039309301398F8943
:101650008917D9F2188E9F8B03C08E8581608E8783
:10166000DF91CF911F91089549895A899F01241BC9
:10167000350B90FF07C02B363F4FACF4143038F3D6
:1016800090E0E8CF91FF11C01216130664F02A36DD
:101690003F4F0CF4A9C0809108384150510981177F
:1016A000B0F6498B5A8B94E0D2CF92FF25C02A36F0
:1016B0008FEF38070CF498C06B897C8926173707A1
:1016C0000CF096C06091023870910338E0E0F2E0CF
:1016D000E61BF70BE417F50798F67E5F46175707EA
:1016E00078F62F3F8FEF38070CF480C02230310599
:1016F0000CF4ADCF98E0ABCF93FF10C037FDD3CF44
:101700006B897C89261737070CF072C080910738E7
:10171000811708F09CCF4F5F5F4FC3CF94FF11C07C
:1017200080910438181730F083E190E00E9490080F
:1017300090E48DCF4B895C89241735070CF4B3CF27
:1017400086CF95FF0FC080910538181728F084E1E7
:1017500090E00E949008A7CF4B895C8942175307FD
:101760003CF375CF96FF0DC080910638811708F4C1
:1017700087CF4D895E89241735070CF068CF90E23A
:1017800066CF97FF64CF8E8582FD0AC08B899C89C6
:1017900082179307C4F490E41092CD381092CE389B
:1017A0002F3F8FEF38078CF441505109498B5A8BEA
:1017B000209114063091150621503109209314060A
:1017C0003093150644CF94E0E7CF223031050CF476
:1017D0003ECF4F5F5F4F498B5A8B2091140630915B
:1017E00015062F5F3F4FEACF91E031CF92E02FCF28
:1017F00090E12DCFEF93FF93E5EFF8E38F938FB751
:101800008F939F937F9370E080819181805D9C4F47
:1018100080839183885E934018F0808391837F5FFB
:101820009281970F928380E09381981F9383948194
:10183000981F94839581981F958396819F5F9683C7
:1018400097819F4F978390859F4F908791859F4F5A
:10185000918781E080938D0A7F919F918F918FBFB7
:101860008F91FF91EF9118951F920F920FB60F92E3
:1018700011241F932F933F934F935F936F937F9305
:101880008F939F93AF93BF93CF93DF93EF93FF9388
:10189000C9E1D9E3E881F981838586FF56C080FFDD
:1018A00041C0158581FF38C08E81882359F0809111
:1018B000343880935000EB85FC85309719F08E8189
:1018C00090E009951C831D821886E985FA8530977A
:1018D00009F009958D81882319F183E090915000DA
:1018E00090933438917090935000E881F981828709
:1018F000FF91EF91DF91CF91BF91AF919F918F9128
:101900007F916F915F914F913F912F911F910F9018
:101910000FBE0F901F9018951C831E821F82DDCF73
:1019200086E0DCCF8091343880935000EB85FC85D5
:10193000309729F08E81882311F090E009951E825E
:101940001D821F82188682E0D0CF87FF2FC081FFC3
:101950001EC0887139F08A8183FF04C01D82877F91
:101960008A83F1CF8B818F5F8B838A8188608A83A2
:10197000A8858D81A81738F7AC0FBD2FB11D1D9616
:101980008C91858788858F5F888783E0AECF85853A
:10199000EE81E03258F4EC0FFD2FF11D85A78E810A
:1019A0008F5F8E83803288F386E09FCF80E09DCF6B
:1019B0001F920F920FB60F9211242F933F934F93C4
:1019C0005F936F937F938F939F93AF93BF93CF93C7
:1019D000DF93EF93FF93C0E0D6E0E091C738F0913A
:1019E000C8383097F1F018823B8588899989248519
:1019F0002F7002C0969587952A95E2F78787908B7E
:101A0000868588608687868582FF23C0868531FF2C
:101A10001BC08260868780E190E08093CF389093EE
:101A2000D038FF91EF91DF91CF91BF91AF919F910E
:101A30008F917F916F915F914F913F912F910F9077
:101A40000FBE0F901F9018958D7F868788E090E0DD
:101A5000E4CF808191810E941E04E3CF1F920F92F8
:101A60000FB60F9211242F933F934F935F936F9371
:101A70007F938F939F93AF93BF93EF93FF930E94B6
:101A8000D80CFF91EF91BF91AF919F918F917F9172
:101A90006F915F914F913F912F910F900FBE0F90DB
:101AA0001F901895CF93DF9390E0EC01C85DD04470
:101AB00028812F3F61F1AC014A5E5044DA01EC917C
:101AC000B0E2EB9FF0011124FC5F268330812323D9
:101AD00091F49C012C5F3044D9012C913097D1F0C6
:101AE0002830C0F47096E20FF11D3FB7F8942081C2
:101AF000277F20833FBF8E509144FC0180819091CD
:101B00002C38892321F0803141F08038C1F0DF91F9
:101B1000CF910895F0E0E0E0E8CF8881DA019C9170
:101B2000913059F4853010F0880F82959091010A18
:101B3000809589238093010AEACF880FF7CF10920E
:101B4000A006E5CFE1E1F9E31282138288EE93E08B
:101B5000A0E0B0E084839583A683B7838EE39FEBF8
:101B60008083918380E198E08087918780912D38F0
:101B700090912E38A0912F38B091303880936639EB
:101B800090936739A0936839B09369390895CF93DA
:101B9000DF93CDB7DEB7A797CDBFDEBF88ED90E06E
:101BA00084BF90936100E0E0F6E083E582838DE0FE
:101BB000858380E2838381E0808310920202809398
:101BC000030A9EEF9093260A9093270A9BE0909336
:101BD000000AE0E8FAE02DEF31E026A737A71182EE
:101BE00090E89283848781E180837894FE01319626
:101BF000A0E0B4E1CF012D912193A13124E1B207FE
:101C0000D1F729813A81213F3A4C29F50889198970
:101C10000E94EB0508171907F1F42B813C818D8197
:101C20009E8128173907B8F4AC01421B530B443886
:101C3000534088F0209311383093123880930F3836
:101C40009093103889E0FE013796ACE7B8E3019035
:101C50000D928A95E1F70E948204E6E3F8E329E811
:101C600038E366E478E346E458E390E88FEF1192B6
:101C70001192D9019D939D01DB018D93BD014E17FA
:101C80005F07A9F710929138809323381092353866
:101C90008091363890913738B0E0A0E08093853855
:101CA00090938638A0938738B093883880915004F9
:101CB000886080935004809151048860809351041F
:101CC00080915204886080935204B2E4BA95F1F78F
:101CD00000C08AB18095482F477050E09A01220FCA
:101CE000331F220F331F24708270822B5595479526
:101CF00055954795405E840F90911B3991FD19C011
:101D000092FD17C09091010294FFCCC096E0909391
:101D1000060490911B39946090931B39E091193916
:101D2000F0911A3990E0880F991F8487168681EE0A
:101D3000818780E497E0809322399093233980E172
:101D400096E0809324399093253984B18C6084B9CE
:101D500080B1806380B906981092000A80912C3877
:101D60008F7E80932C388FE08093050A81E08093EA
:101D7000030A90E69093010A9EEF9093270A10922F
:101D80002B0A10922D0A95E09093000A95B19C6061
:101D900095B9E0E4F6E093E592839DE0958390E2C7
:101DA0009383808392E0909346068093410693E06C
:101DB000909340068093480680914B0680FFFCCFAD
:101DC00060915006709151066093C3387093C43887
:101DD00090E080E00E94491E20E030E040E05FE3B8
:101DE0000E94001F6093BF387093C0388093C13841
:101DF0009093C2386093BB387093BC388093BD38E1
:101E00009093BE380E9469036093D7387093D83896
:101E10008093D9389093DA386093D3387093D4385C
:101E20008093D5389093D6388BED98E398330CF4A3
:101E300047C0E091C938F091CA383097C1F5809316
:101E4000C9389093CA381092DF381092F238109245
:101E5000E0381092E13880E092E08093E23890938D
:101E6000E33880912306826080932306A4EEBEEBC4
:101E700092E088E024E090FD9DC08F5F96951196DA
:101E80008031C9F784E090E08093DD389093DE38AC
:101E900087E695E08093E4389093E53883E080937B
:101EA000E6380EC093E09093260433CFFC01808186
:101EB00091810097D9F728E3EB3DF20709F071C053
:101EC00088EC90E08093EE389093EF3822E330E096
:101ED0002093F0383093F1381092E7382093083887
:101EE0002093073880930238909303388FEF8093C4
:101EF000063882E0809304388093053881E080932F
:101F0000F438F894809154381092543870905338C3
:101F100010925338909152381092523890900E3857
:101F20002FEF20930E3810910D38112309F44FC074
:101F300000910938B0900A38C0900B38D0900C3816
:101F400010920D3880905138F12CE12CA12C882072
:101F500041F0A0904E38E0904F38F09050381092F9
:101F6000513878949923C9F1F89410922B0A109261
:101F70002D0A80E00E94520D81E00E94520D8DE0FA
:101F800090EFA7E0B0EB8093003F9093013FA093C8
:101F9000023FB093033F88ED91E084BF90934100EE
:101FA000FFCF8BED98E38083918384818F5F809353
:101FB000DF384BCF8E3008F060CF1896EC91189731
:101FC000EE2309F45ACFF0E0FC5F208356CFD12CEA
:101FD000CC24CA94B12C00E0B5CF882349F00E94EC
:101FE000C009833011F00C94921C82E00E945C08BE
:101FF000772099F00E94C009833079F00E94A503F0
:1020000010927B3860937638709377388093783865
:102010009093793884E00E945C08112309F44CC045
:10202000DD2031F0E02FE770F0E0EA5BF74CC08292
:10203000083008F041C0809191380813D5C00E9443
:10204000C0098D7FC9F510E0F801E757F74CB08261
:102050002091113830911238BB20C9F020910F38EF
:10206000309110384FEFB41691F0C0901138D090E5
:1020700012382C193D09AB2DB0E00E940E1D2FEF38
:1020800030E040E050E00E94BF1C2C0D3D1D20932D
:10209000243830932538F801EA5BF74C80818F3F74
:1020A00009F09FC01092AA381092AB381092AC3849
:1020B0001092AD380E94CE0957E0591550F080912A
:1020C0009138981631F00E94C009833011F0909237
:1020D0002338882041F167E06A1528F18E2D87703A
:1020E000823051F4C70153E0969587955A95E1F7F0
:1020F0008F7081508A30B8F4EA2DF0E0EE0FFF1FA8
:10210000EA5CF74CE082F18280919138A8120BC012
:10211000C701B0E0A0E08093853890938638A09303
:102120008738B09388388091F4388823F1F0109282
:10213000F4380E9456080E9469038B013AE0C32ECE
:10214000D12CE12CF12C0E946903601B710B683EBD
:10215000734008F457C0C114D104E104F10409F03C
:1021600049C01092F2381092F3384090C338509022
:10217000C4384E8E5F8E8090BF389090C038A0904B
:10218000C138B090C23880914B0680FF42C0609049
:102190005006709051066E8E7F8EB30190E080E005
:1021A0000E94491E2DEC3CEC4CE45DE30E94001FB4
:1021B00020E030E040E05FE30E94001F6B017C0103
:1021C00023E333E343E75FE3C501B4010E94001F4B
:1021D0009B01AC01C701B6010E94301D4B015C019F
:1021E000D2CF0E94A50566CFE02FF0E0E757F74C6D
:1021F000B08262CF81E0C81AD108E108F108085125
:102200001C4FA1CFC114D104E104F10409F09BCF0C
:10221000A8CFCE8CDF8CC092C338D092C4388092C5
:10222000BF389092C038A092C138B092C2380E9494
:1022300069030091D7381091D8382091D93830915E
:10224000DA386B017C01C01AD10AE20AF30A44EFC2
:10225000C41641E0D406E104F10408F496C1C0902C
:10226000D338D090D438E090D538F090D6382B01C0
:102270003C014C185D086E087F084A8A5B8A6C8AAC
:102280007D8A409228385092293860922A3870927C
:102290002B386093D3387093D4388093D53890938B
:1022A000D6380C501E4F2F4F3F4F6B017C01C01A88
:1022B000D10AE20AF30A40EDC41647E0D406E1046D
:1022C000F10408F0F7C10093D7381093D838209361
:1022D000D9383093DA380E94A5032B013C016A8972
:1022E0007B898C899D890E94491E2DEB37E346E846
:1022F00055E30E94001F6E8B7F8B888F998F20E0A3
:1023000030E0A9010E94FB1E18160CF056C0209167
:10231000BB383091BC384091BD385091BE38C501B2
:10232000B4010E942F1D2E893F89488D598D0E942E
:10233000A11D68A379A38AA39BA32FE632E143E8FA
:102340005BE36E897F89888D998D0E94A11D6B0149
:102350007C0120E030E040E85FE30E94FB1E18169D
:1023600034F4C12CD12C20E8E22E2FE3F22E809100
:10237000B7389091B838A091B938B091BA388A8FEF
:102380009B8FAC8FBD8F9C01AD0168A179A18AA103
:102390009BA10E942F1DA70196010E94001F2A8D5C
:1023A0003B8D4C8D5D8D0E94301D6093B7387093CE
:1023B000B8388093B9389093BA388092BB389092ED
:1023C000BC38A092BD38B092BE380E94C009182F08
:1023D00080910C398230B9F4809108399091093993
:1023E000A0910A39B0910B3973016201C81AD90A58
:1023F000EA0AFB0AD701C601893C9105A105B1058E
:1024000010F010920C39E090B538F090B638609129
:10241000263870912738072E000C880B990B0E94E4
:102420004B1EA50194010E949C1D87FF4CC1C50154
:10243000B4010E94131E9B016093263870932738C5
:10244000685071096093B3387093B438E216F3069C
:1024500069F0112359F04092023950920339609289
:1024600004397092053981E08093B2382093B538F1
:102470003093B638123009F432C608F046C1112341
:1024800009F47BC1113009F41EC42091B538309194
:10249000B638E0911138F0911238E217F30710F0D6
:1024A0000C94301C40910F38509110382417350788
:1024B00010F00C94331C2E1B3F0BAFEFB0E00E94CA
:1024C0000E1D4E1B5F0B9A0150E040E00E94BF1CA6
:1024D00040912D3850912E3860912F3870913038BE
:1024E00030E8239F80011124012E000C220B330BB6
:1024F0004F7750786170707F402B512B622B732B7C
:102500004E8C5F8CC201B0E0A0E021E1880F991FE2
:10251000AA1FBB1F2A95D1F788279927AE7FBF70C6
:10252000842B952BA62BB72BAC01BD014F78809146
:10253000913890E0B0E0A0E034E0880F991FAA1F26
:10254000BB1F3A95D1F780779927AA27BB27842B01
:10255000952BA62BB72B80932D3890932E38A093D4
:102560002F38B0933038F89480912D3890912E38D0
:10257000A0912F38B09130388093663990936739A5
:10258000A0936839B093693978940E94A5036B01D0
:102590008091CF389091D03888719927892B11F488
:1025A0000C94411C8091CD389091CE380097B1F0B9
:1025B0002091CF383091D0380E947E0A8091CD385A
:1025C0009091CE38892B11F00C94361C1092CB3898
:1025D0001092CC381092CF381092D0388091C538F4
:1025E0009091C638C81AD90AB4E1CB16D10408F4C0
:1025F00057C044968093C5389093C6388091CF38A1
:102600009091D038892B09F04BC0E0E0F6E0809142
:10261000CF389091D038892B09F042C08091C938C9
:102620009091CA38DC0112962D913C91108E213088
:1026300011F00C94681C40EE408F168E10821382AD
:1026400043E0438733272093CB383093CC38A09195
:10265000CD38B091CE38109711F40C94771C82E0ED
:102660008287848351968D919C91529753962D9198
:102670003C915497820F931F1C962C911C972F709E
:1026800002C0880F991F2A95E2F7848B958B84E00E
:1026900090E08093CF389093D038CD010E941E04F3
:1026A0008091D1389091D238892B11F40C94821CEE
:1026B0002A9A27CC6093D7387093D8388093D9382A
:1026C0009093DA3808CE6091B3387091B438072E01
:1026D000000C880B990B0E944B1EA50194010E94CF
:1026E000FB1E970118160CF0C1CEC501B4010E9463
:1026F000131E9B016093B3387093B438685F7F4FAB
:102700006093263870932738A1CE133009F416C58C
:10271000143009F0BACED09071386091B73870910A
:10272000B8388091B9389091BA38D0FC0AC5905821
:102730000E94131E8B01FF24FA9480917B388550F0
:10274000833008F015C581E0F81201C560910F389B
:10275000709110386951710990E080E00E94491E23
:10276000A50194010E949C1D87FF02C581E0809312
:102770007A3888E080937B38FBC48091AE389091A2
:10278000AF38A091B038B091B138805C904EAF4F67
:10279000BF4F84159505A605B705D8F56091243877
:1027A00070912538072E000C880B990B0E944B1E48
:1027B000A50194010E942F1D6B017C0120E030E0F7
:1027C000A9010E949C1D87FF04C0F7FAF094F7F856
:1027D000F09420E030E040EA51E4C701B6010E94E5
:1027E0009C1D181694F00E94560828EE421A23E009
:1027F000520A61087108409202395092033960927E
:1028000004397092053982E001C083E00E945C08BF
:102810003CCE80912D3880FF12C080910D3990916F
:102820000E39A0910F39B0911039C296A11DB11D7A
:1028300084159505A605B70510F481E0E7CF8091D2
:1028400023388F3F19F00E94230A1FCE609124384D
:1028500070912538072E000C880B990B0E944B1E97
:10286000A50194010E942F1D6B017C0180911F38EE
:1028700090912038A0912138B09122388A8B9B8B7F
:10288000AC8BBD8B9C01AD01C701B6010E94FB1E44
:1028900018165CF02A893B894C895D895058C7011C
:1028A000B6010E949C1D87FFADC120E030E0A90168
:1028B000C701B6010E94FB1E18160CF0BBC020E039
:1028C00030E040E85FE32A8B3B8B4C8B5D8B20E054
:1028D00030E048E452E4C701B6010E94001F2A8993
:1028E0003B894C895D890E94001F5B018C0120900F
:1028F000AA383090AB388090AC389090AD3820E05A
:1029000030E0A901B101C4010E94FB1E181654F465
:102910009101A401B501C8010E94FB1E181614F410
:102920005101840190911B389A8F20901C38A091FE
:102930001D38A8A330901E389501A801692F722D6B
:102940008A2F932D0E94FB1E181624F0AA8E2B2C82
:1029500008A3312E01E010E020E030E0A901C7011A
:10296000B6010E94FB1E181614F010E000E0000FE4
:10297000111F000F111FF801E656F74C208131811D
:10298000428153816A8D722D88A1932D0E94001F70
:102990000E55174CF80120813181428153810E94EC
:1029A000301D6CA37DA38EA39FA3C090B738D09099
:1029B000B838E090B938F090BA3820E030E0A9019A
:1029C000C701B6010E949C1D87FF3DC0C701B6012B
:1029D00090588090963890909738A0909838B09002
:1029E000993820E030E040E752E40E949C1D87FFC8
:1029F000D0C020E030E04AE753E46E897F89888DBB
:102A0000998D0E94001FA50194010E94301D4B0169
:102A10005C0120E030E04CE852E40E94FB1E1816F6
:102A2000ACF08092963890929738A0929838B092F5
:102A3000993818C080E090E0A0E8BFEB8A8B9B8BB0
:102A4000AC8BBD8B44CFC701B601C3CF80E090E013
:102A5000ACE8B2E48093963890939738A093983876
:102A6000B09399388090963890909738A090983885
:102A7000B09099382A8D322D48A1532D6A897B89CF
:102A80008C899D890E94001FA70196010E942F1D1D
:102A900020911738309118384091193850911A38D0
:102AA0000E94001F6B017C01A50194016CA17DA116
:102AB0008EA19FA10E94301D2A893B894C895D8986
:102AC0000E94001F9B01AC01C701B6010E94301D8E
:102AD0006A8B7B8B8C8B9D8B20E030E046E954E445
:102AE0006E897F89888D998D0E94001F20911338EF
:102AF0003091143840911538509116380E94301D8D
:102B00006B017C0120E030E04EE753E40E94FB1EA5
:102B100018160CF46AC0C0921338D0921438E092A0
:102B20001538F092163860911338709114388091EE
:102B30001538909116380E94131E6B01C501B4011F
:102B40000E94131E8B010C0D1D1D0F3F110514F06B
:102B50000EEF10E06A897B898C899D890E94131E83
:102B6000061717070CF4B80188279927801B910BCB
:102B7000861797070CF4CB0141E061E00E9404083E
:102B8000409292385092933860929438709295386F
:102B90007CCC20E030E0A901C501B4010E94FB1EFD
:102BA00018160CF05FCF20E030EC4AE555E46E8952
:102BB0007F89888D998D0E94001F9B01AC01C50102
:102BC000B4010E942F1D4B015C0120E030E0A901FF
:102BD0000E949C1D87FF25CF10929638109297383F
:102BE00010929838109299383DCF80E090E0AEE78F
:102BF000B3E48093133890931438A0931538B093AE
:102C0000163891CF109296381092973810929838C3
:102C1000109299380E945008809192389091933880
:102C2000A0919438B0919538845D9E4FAF4FBF4FBF
:102C300084159505A605B70508F027CC20E030E0FF
:102C400040E850E4C501B4010E949C1D87FF0BC001
:102C50001092B3381092B43888E090E08093263810
:102C600090932738C2CD20E030EC4EE754E4C50104
:102C7000B4010E94FB1E18168CF4CC24CA9403E005
:102C8000D02EC0922638D092273887EFE82E83E0E6
:102C9000F82EE092B338F092B438A7CD20E030E0BF
:102CA00040E850E4C501B4010E942F1D0E94131E8C
:102CB0006093B3387093B438685F7F4F6093263861
:102CC0007093273892CD0091113810911238021765
:102CD000130708F076C040910F3850911038241730
:102CE000350708F070C0201B310BAFEFB0E00E9439
:102CF0000E1D401B510B9A0150E040E00E94BF1C8A
:102D0000E0919138F0E0E757F74C20838091023949
:102D100090910339A0910439B091053988519C4FA5
:102D2000AF4FBF4F84159505A605B70508F04DC0F8
:102D3000C0902D38D0902E38E0902F38F090303859
:102D4000C0FC43C080910D3990910E39A0910F398C
:102D5000B091103988519C4FAF4FBF4F84159505E6
:102D6000A605B70590F50E9456088091B2388823D1
:102D700009F449CD1092B238D701C601FFE0B695EB
:102D8000A79597958795FA95D1F78F5F837090E017
:102D9000B0E0A0E01FE0880F991FAA1FBB1F1A9583
:102DA000D1F7E894D7F8E0F88C299D29AE29BF29FE
:102DB00080932D3890932E38A0932F38B0933038CD
:102DC00022CD20E09DCF2FEF9BCFC0908538D090B3
:102DD0008638E0908738F09088388C2D8770813065
:102DE00009F0B4C0D701C60177E0B695A7959795CD
:102DF00087957A95D1F7877031E4839FC0011124BC
:102E000067E070E00E94AB1CEDEBFE2EF60EB80101
:102E1000645C7F4F90E080E00E94491EA501940110
:102E20000E94FB1E18160CF041C0B801685F7F4F6E
:102E300090E080E00E94491EA50194010E949C1D23
:102E400087FF34C0B80190E080E00E94491EA501D0
:102E500094010E942F1D20E030E040E450E40E94E5
:102E6000001F9B01AC0160E070E086E193E40E94EA
:102E70002F1D4B015C016F2D70E090E080E00E94FF
:102E80004B1E9B01AC01C501B4010E94FB1E18162C
:102E90002CF0C501B4010E941A1EF62E8F2D90E071
:102EA00040E060E09195819591094DC000910F3807
:102EB00010911038B8016C53710990E080E00E94C5
:102EC000491EA50194010E949C1D87FF37C1B801CE
:102ED0006850710990E080E00E94491EA5019401AC
:102EE0000E94FB1E18160CF029C1B80190E080E08A
:102EF0000E94491EA50194010E942F1D20E030E090
:102F000040E450E40E94001F20E030E046E153E43A
:102F10000E94301D4B015C016F2D70E090E080E05D
:102F20000E944B1E9B01AC01C501B4010E94FB1E17
:102F300018162CF0C501B4010E941A1EF62E40E0AE
:102F400060E08F2D90E00E9404089FCA823009F053
:102F5000F5C0D701C60153E0B695A795979587951B
:102F60005A95D1F7482F4F704E8B20900F383090E4
:102F70001038201A310A2101569447944A8A5B8AF4
:102F8000413009F065C0040D151DB80190E080E0E6
:102F90000E94491EA50194010E942F1D0E94131E2C
:102FA0004B01CB0177FF04C088279927881999091D
:102FB00009970CF4C3C0D701C60147E0B695A795A1
:102FC000979587954A95D1F7877061E4869FC001F0
:102FD000112467E070E00E94AB1C1DEB160FB401DA
:102FE000990C880B990B0E944B1E20E030E040E4C6
:102FF00050E40E94001F6B017C01612F70E090E0A3
:1030000080E00E944B1E4B015C0120E030E0A901F2
:10301000C701B6010E94FB1E18160CF049C020E043
:1030200030E046E153E4C701B6010E94301D6B0158
:103030007C01A50194010E94FB1E18162CF0C7010B
:10304000B6010E941A1E162F40E060E0812F7ACF51
:10305000C501B4010E941A1E601B710B2E892150FC
:10306000330BD9012901330F660877089B0177FFDD
:1030700002C030E020E00E94061D4A895B89640F8F
:10308000751F811D911D910150E040E00E94BF1C01
:103090005E89251710F0252F215030E0D1010E94C4
:1030A0000E1DA30192010E94BF1C020F131F6DCFC2
:1030B000A701960160E070E086E193E40E942F1D75
:1030C0006B017C01A50194010E94FB1E18162CF0D7
:1030D000C701B6010E941A1E162F812FE0CE0E9452
:1030E0005608809123388F3F09F0ADCB809102398B
:1030F00090910339A0910439B091053988519C4FC2
:10310000AF4FBF4F481659066A067B0608F495CBA9
:1031100080912D3880FFB9C980910D3990910E3979
:10312000A0910F39B0911039C296A11DB11D84151F
:103130009505A605B70508F480CBA7C90E945608D7
:10314000A4C90E94131E8B01FF24F394F6CA609158
:10315000113870911238675E7F4F90E080E00E94D6
:10316000491EA50194010E94FB1E18160CF4FECA0C
:10317000E0907B3899E09E1508F487C9EE2DF0E0C9
:10318000EC53F74E0C94001DCE18F8181619A6191A
:10319000F219141A8C1A8C1A641B731B80917638DE
:1031A00090917738A0917838B091793884529A4FBD
:1031B000AF4FBF4F84159505A605B705A0F44E8CFB
:1031C0005F8C409274385092753881E080937B38E0
:1031D0000E94A5036093763870937738809378388F
:1031E0009093793852C940E061E082E09FEFABCE26
:1031F0008091763890917738A0917838B09179386D
:1032000084529A4FAF4FBF4F84159505A605B70559
:1032100040F46E8C7F8C609272387092733882E0CA
:10322000D5CF40E061E08EEF90E08DCE0E94560851
:1032300060917438709175380091723810917338BC
:10324000CB01801B910B8D372CEF920724F0843833
:1032500093400CF4DACA90E080E00E94491E6B01B2
:103260007C01B80190E080E00E94491E4B015C01A6
:1032700022E538EB4EE75FE3C701B6010E94001F6D
:103280006E8B7F8B888F998F20E037ED43EA5BE36D
:10329000C501B4010E94001F9B01AC016E897F89AA
:1032A000888D998D0E94301D20E030E040E05FE382
:1032B0000E94001F0E941A1E6093113870931238EA
:1032C00022E538EB4EE75FE3C501B4010E94001F21
:1032D0004B015C0120E037ED43EA5BE3C701B60137
:1032E0000E94001F9B01AC01C501B4010E94301D6A
:1032F00020E030E040E05FE30E94001F0E941A1EC1
:1033000060930F38709310381092713810927A3899
:1033100010926D3810926E381092693810926A3897
:1033200010926538109266381092633810926F3898
:103330001092703810926B3810926C381092673877
:10334000109268381092643883E041C0609111385F
:103350007091123841E0F41227C0645C7F4F90E016
:1033600080E00E94491EA50194010E94FB1E87FF78
:103370002BC08091763890917738A0917838B091B1
:1033800079388C53964FAF4FBF4F84159505A605DE
:10339000B705D0F051E088E39FEFF51611F088EC07
:1033A00090E040E061E0CFCD60910F38709110382F
:1033B0006C53710990E080E00E94491EA5019401C0
:1033C0000E949C1D1816ACF20E94500884E0809365
:1033D0007B38409276385092773860927838709285
:1033E000793853C80E945008809176389091773888
:1033F000A0917838B091793888539F4FAF4FBF4F25
:1034000084159505A605B70508F03FC810926138E8
:103410001092623810925F381092603810925D38C6
:1034200010925E3885E0D3CF80915F3890916038FC
:10343000009709F045C0A4E5B0E02A893B894C8992
:103440005D890E94241DDC01CB012CE0B695A79577
:10345000979587952A95D1F72091613830916238F8
:10346000820F931F8093613890936238892F992738
:10347000893C910540F081E080937A3888E0809320
:103480007B380C944512009799F0093C110584F0A3
:1034900080935F389093603800935D3810935E3866
:1034A00040927638509277386092783870927938B6
:1034B00061E0F61619F091958195910941E072CF7E
:1034C00020915D3830915E382017310724F4009345
:1034D0005D3810935E38409176385091773860911E
:1034E000783870917938485D5F4F6F4F7F4F441542
:1034F000550566057705E0F61092593810925A384E
:1035000010925B3810925C381092573810925838ED
:1035100026E020937B38C4CF87E0E8127DC082E3A9
:1035200090E0C0905F38D09060388C0D9D1D8F3F2B
:10353000910514F08EEF90E0A1E0FA1619F0919544
:103540008195910941E061E00E940408409176383C
:10355000509177386091783870917938DB01CA01E1
:10356000C296A11DB11D84159505A605B70508F5E0
:10357000C801110FAA0BBB0B0091593810915A3892
:1035800020915B3830915C38800F911FA21FB31FD0
:103590008093593890935A38A0935B38B0935C3835
:1035A000809157389091583801968093573890936E
:1035B00058384C595F4F6F4F7F4F4415550566057E
:1035C000770510F00C9445122091573830915838F7
:1035D0002115310521F150E040E06091593870919A
:1035E0005A3880915B3890915C380E94E11C1092AF
:1035F000593810925A3810925B3810925C381092F9
:10360000573810925838B7E0EB1661F020935538D0
:103610003093563887E0DBCE89E190E082CF30E00E
:1036200020E0E5CF8091553890915638F901E81B9C
:10363000F90BCF0169E170E00E94AB1C81E0F81248
:1036400080E096012A5031092B3A3105C8F59B01DB
:10365000285031092335310598F540915D38509156
:103660005E389A01245631092D333F4048F590E0E9
:103670009C01220F331FD901A359B74CED91FC9146
:103680001197CE0EDF1ECD92DC92F901E759F74C6F
:10369000A081B1816A0F7B1F60837183F901EB59AF
:1036A000F74C208131812417350710F44083518372
:1036B000FC01ED59F74C80818F5F808388E087CED5
:1036C00081E080937A38FACF0E94500881E08D0D16
:1036D0008093713890917A38911103C0843008F446
:1036E00033CE89E074CE0E94560880917A388111D9
:1036F000A2C080916338823009F09DC08091643807
:10370000823009F098C081E080937C3880916D38D8
:1037100090916E3801969695879580937D3880912B
:10372000693890916A3801969695879580937F388D
:103730008091653890916638809381389093823873
:1037400080916F3890917038019696958795809307
:103750007E3880916B3890916C380196969587955C
:10376000809380388091673890916838809383384F
:10377000909384380E94820441EF442E4AEC542EE8
:1037800049825A82E0901138F0901238EB82FC8224
:1037900000910F38109110380D831E8389E0ECE7FB
:1037A000F8E3DE01179601900D928A95E1F7CE01BC
:1037B00001960E94EB05888B998BAE014F5F5F4F9E
:1037C000A0E0B4E1FA018191AF019C91891769F001
:1037D000E0E0F0E10FB622812370E9F7F8948C93D2
:1037E0008DE984BF83E080830FBE1196A131F4E19F
:1037F000BF0741F7E0919138F0E0E757F74CA0811F
:10380000AA2361F1AF3F79F098012E193F09B0E08A
:103810000E940E1D2FEF30E040E050E00E94BF1CE0
:103820008701020F131F00932438109325380E943C
:10383000CE090C94451210927C3810927D3810926B
:103840007F38109281381092823810927E38109210
:10385000803810928338109284388CCF8701E3CF60
:1038600020E00C9468122FEF0C94681282E0809391
:103870000A0684E090E08093CF389093D0380C947F
:10388000EE128091CF389091D038029711F00C94BD
:10389000EE121092CF381092D0380091C9381091A2
:1038A000CA380115110569F48091CB389091CC3854
:1038B00080620E9490081092CB381092CC380C9401
:1038C000EE12C8010E947E0AD8010D911C91E9CF29
:1038D000243019F448E20C941C132C3011F00C9491
:1038E000501348E2408F46E8468F0C941E1321E0A7
:1038F00022871482E1E0F0E0E093CF38F093D038F3
:103900000C944E130E94A5037370882799276F3F6C
:1039100071058105910509F010F40C9458132A984B
:103920000C94810F71100C94FE0F0C940D10AA1BB7
:10393000BB1B51E107C0AA1FBB1FA617B70710F09A
:10394000A61BB70B881F991F5A95A9F780959095CC
:10395000BC01CD01089597FB072E16F4009407D003
:1039600077FD09D00E94971C07FC05D03EF4909586
:1039700081959F4F0895709561957F4F0895A1E2BD
:103980001A2EAA1BBB1BFD010DC0AA1FBB1FEE1FD9
:10399000FF1FA217B307E407F50720F0A21BB30B24
:1039A000E40BF50B661F771F881F991F1A9469F7A0
:1039B00060957095809590959B01AC01BD01CF01FC
:1039C0000895052E97FB1EF400940E94F81C57FDE5
:1039D00007D00E94BF1C07FC03D04EF40C94F81CC7
:1039E00050954095309521953F4F4F4F5F4F08952B
:1039F00090958095709561957F4F8F4F9F4F08955B
:103A0000EE0FFF1F0590F491E02D09940E940E1D0A
:103A1000332312F48A1B9B0B0C941F1DA29FB00131
:103A2000B39FC001A39F700D811D1124911DB29FF2
:103A3000700D811D1124911D08950E940E1DB7FF68
:103A40000895821B930B08950E940E1DA59F900D53
:103A5000B49F900DA49F800D911D1124089550587E
:103A6000BB27AA270E94471D0C94C11E0E94B31EAB
:103A700038F00E94BA1E20F039F49F3F19F426F462
:103A80000C94B01E0EF4E095E7FB0C94AA1EE92FEF
:103A90000E94D21E58F3BA1762077307840795076E
:103AA00020F079F4A6F50C94F41E0EF4E0950B2E9C
:103AB000BA2FA02D0B01B90190010C01CA01A00180
:103AC0001124FF27591B99F0593F50F4503E68F1DB
:103AD0001A16F040A22F232F342F4427585FF3CF1C
:103AE000469537952795A795F0405395C9F77EF4ED
:103AF0001F16BA0B620B730B840BBAF09150A1F036
:103B0000FF0FBB1F661F771F881FC2F70EC0BA0FBB
:103B1000621F731F841F48F4879577956795B79543
:103B2000F7959E3F08F0B0CF9395880F08F099273E
:103B3000EE0F9795879508950E94861E08F481E000
:103B400008950E94B51D0C94C11E0E94BA1E58F023
:103B50000E94B31E40F029F45F3F29F00C94AA1E86
:103B600051110C94F51E0C94B01E0E94D21E68F3E5
:103B70009923B1F3552391F3951B550BBB27AA2726
:103B800062177307840738F09F5F5F4F220F331F60
:103B9000441FAA1FA9F335D00E2E3AF0E0E832D028
:103BA00091505040E695001CCAF72BD0FE2F29D02B
:103BB000660F771F881FBB1F261737074807AB07FD
:103BC000B0E809F0BB0B802DBF01FF2793585F4F72
:103BD0003AF09E3F510578F00C94AA1E0C94F51E05
:103BE0005F3FE4F3983ED4F3869577956795B79554
:103BF000F7959F5FC9F7880F911D9695879597F95F
:103C00000895E1E0660F771F881FBB1F62177307D7
:103C10008407BA0720F0621B730B840BBA0BEE1FEC
:103C200088F7E09508950E941A1E6894B1110C94CB
:103C3000F51E08950E94DA1E88F09F5798F0B92F5C
:103C40009927B751B0F0E1F0660F771F881F991FD1
:103C50001AF0BA95C9F714C0B13091F00E94F41E61
:103C6000B1E008950C94F41E672F782F8827B85F71
:103C700039F0B93FCCF3869577956795B395D9F729
:103C80003EF490958095709561957F4F8F4F9F4F33
:103C90000895E89409C097FB3EF49095809570953F
:103CA00061957F4F8F4F9F4F9923A9F0F92F96E988
:103CB000BB279395F695879577956795B795F111FD
:103CC000F8CFFAF4BB0F11F460FF1BC06F5F7F4F9A
:103CD0008F4F9F4F16C0882311F096E911C07723AC
:103CE00021F09EE8872F762F05C0662371F096E8B5
:103CF000862F70E060E02AF09A95660F771F881F84
:103D0000DAF7880F9695879597F90895990F000827
:103D1000550FAA0BE0E8FEEF16161706E807F9079D
:103D2000C0F012161306E407F50798F0621B730B38
:103D3000840B950B39F40A2661F0232B242B252BB9
:103D400021F408950A2609F4A140A6958FEF811D5C
:103D5000811D089597F99F6780E870E060E00895FD
:103D60009FEF80EC089500240A9416161706180693
:103D70000906089500240A9412161306140605066F
:103D80000895092E0394000C11F4882352F0BB0F00
:103D900040F4BF2B11F460FF04C06F5F7F4F8F4F63
:103DA0009F4F089557FD9058440F551F59F05F3F9E
:103DB00071F04795880F97FB991F61F09F3F79F04D
:103DC00087950895121613061406551FF2CF4695CF
:103DD000F1DF08C0161617061806991FF1CF869551
:103DE0007105610508940895E894BB276627772735
:103DF000CB0197F908950E94861E08F48FEF08956D
:103E00000E94131F0C94C11E0E94B31E38F00E9422
:103E1000BA1E20F0952311F00C94AA1E0C94B01E2B
:103E200011240C94F51E0E94D21E70F3959FC1F3CD
:103E3000950F50E0551F629FF001729FBB27F00D58
:103E4000B11D639FAA27F00DB11DAA1F649F6627AD
:103E5000B00DA11D661F829F2227B00DA11D621FFC
:103E6000739FB00DA11D621F839FA00D611D221FB6
:103E7000749F3327A00D611D231F849F600D211D9A
:103E8000822F762F6A2F11249F5750409AF0F1F01D
:103E900088234AF0EE0FFF1FBB1F661F771F881F86
:103EA00091505040A9F79E3F510580F00C94AA1EF6
:103EB0000C94F51E5F3FE4F3983ED4F38695779516
:103EC0006795B795F795E7959F5FC1F7FE2B880F2C
:103ED000911D9695879597F90895F894FFCF3F1C0B
:103EE0000B05030114151617311050515253545538
:103EF0003536101080000000001010100000000087
:103F0000000010000405060705040302010000017B
:103F10000203010203000000000001010101010190
:103F2000020202020000000010204080201008045D
:103F30000201010204080204080100000000E50378
:103F4000F7031B04B103DF03CD03B903820096001E
:103F50000303C80F0F0000FF0000FFF2032800005A
:103F6000007E430AD7233D00000C4400000041FFBF
:0E3F700000020800F4010000FF040000000041
:023FFE000000C1
:00000001FF
